:100000000C9447050C946F050C946F050C946F05C8
:100010000C946F050C946F050C946F050C94201CC8
:100020000C946F050C946F050C946F050C946F0580
:100030000C946F050C946F050C946F050C946F0570
:100040000C94D41C0C946F050C94A21C0C947C1C76
:100050000C946F050C946F050C946F050C946F0550
:100060000C941E1D0C946F0500000000003E5B4FB9
:100070005B3E3E6B4F6B3E1C3E7C3E1C183C7E3C08
:10008000181C577D571C1C5E7F5E1C00183C180016
:10009000FFE7C3E7FF0018241800FFE7DBE7FF30A6
:1000A000483A060E2629792926407F050507407F14
:1000B00005253F5A3CE73C5A7F3E1C1C08081C1C87
:1000C0003E7F14227F22145F5F005F5F06097F017D
:1000D0007F006689956A606060606094A2FFA29468
:1000E00008047E040810207E201008082A1C080836
:1000F0001C2A08081E101010100C1E0C1E0C303884
:100100003E3830060E3E0E06000000000000005F84
:1001100000000007000700147F147F14242A7F2AA0
:100120001223130864623649562050000807030062
:10013000001C2241000041221C002A1C7F1C2A08AE
:10014000083E080800807030000808080808000011
:1001500060600020100804023E5149453E00427F85
:10016000400072494949462141494D331814127FD4
:100170001027454545393C4A494931412111090774
:100180003649494936464949291E000014000000F5
:1001900040340000000814224114141414140041C7
:1001A00022140802015909063E415D594E7C121184
:1001B000127C7F494949363E414141227F414141BC
:1001C0003E7F494949417F090909013E4141517337
:1001D0007F0808087F00417F41002040413F017FA8
:1001E000081422417F404040407F021C027F7F0470
:1001F00008107F3E4141413E7F090909063E4151B9
:10020000215E7F09192946264949493203017F01A8
:10021000033F4040403F1F2040201F3F4038403FA9
:10022000631408146303047804036159494D4300BF
:100230007F4141410204081020004141417F0402F6
:10024000010204404040404000030708002054548D
:1002500078407F284444383844444428384444286B
:100260007F385454541800087E090218A4A49C78BE
:100270007F0804047800447D40002040403D007F1A
:100280001028440000417F40007C047804787C08FA
:100290000404783844444438FC18242418182424CE
:1002A00018FC7C08040408485454542404043F44B3
:1002B000243C4040207C1C2040201C3C4030403CE2
:1002C00044281028444C9090907C4464544C440042
:1002D00008364100000077000000413608000201A6
:1002E0000204023C2623263C1EA1A161123A404092
:1002F000207A38545455592155557941225454780F
:1003000042215554784020545579400C1E527212A7
:100310003955555559395454545939555454580030
:1003200000457C410002457D420001457C407D1234
:1003300011127DF0282528F07C5455450020545496
:100340007C547C0A097F4932494949323A44444441
:100350003A324A4848303A4141217A3A424020787C
:10036000009DA0A07D3D4242423D3D4040403D3C7D
:1003700024FF2424487E4943662B2FFC2F2BFF09A2
:1003800029F620C0887E0903205454794100004496
:100390007D413048484A32384040227A007A0A0A81
:1003A000727D0D19317D2629292F282629292926F4
:1003B00030484D4020380808080808080808382F39
:1003C00010C8ACBA2F102834FA00007B00000814C3
:1003D0002A142222142A14085500550055AA55AA99
:1003E00055AAFF55FF55FF000000FF00101010FF39
:1003F00000141414FF001010FF00FF1010F010F094
:10040000141414FC001414F700FF0000FF00FF1484
:1004100014F404FC141417101F10101F101F1414D0
:10042000141F00101010F0000000001F101010101A
:100430001F10101010F010000000FF10101010100E
:1004400010101010FF10000000FF140000FF00FF4C
:1004500000001F10170000FC04F4141417101714E8
:1004600014F404F40000FF00F7141414141414140A
:10047000F700F7141414171410101F101F1414147D
:10048000F4141010F010F000001F101F0000001FE7
:1004900014000000FC140000F010F01010FF10FF1A
:1004A000141414FF141010101F00000000F010FFAF
:1004B000FFFFFFFFF0F0F0F0F0FFFFFF0000000093
:1004C00000FFFF0F0F0F0F0F3844443844FC4A4A17
:1004D0004A347E02020606027E027E0263554941CC
:1004E000633844443C04407E201E2006027E020203
:1004F00099A5E7A5991C2A492A1C4C7201724C3017
:100500004A4D4D303048784830BC625A463D3E49ED
:100510004949007E0101017E2A2A2A2A2A44445F91
:10052000444440514A444040444A51400000FF0185
:1005300003E080FF000008086B6B08361236243693
:10054000060F090F060000181800000010100030F8
:1005500040FF0101001F01011E00191D1712003C80
:100560003C3C3C0000000000000103070F1F3F7FE0
:100570000080C0E0F0F8FCFE00000000240027002E
:100580002A000000000023002600290000000008C7
:10059000000201000003040700000000000000004A
:1005A000DB40A4A62EAF2000A1C8D300408DAED55D
:1005B00080A80000600000000000000000000000B3
:1005C000000000E00000000000000000000000004B
:1005D0000001E0000000000000000000000000003A
:1005E00001F0000000000000000000000000000317
:1005F000F00000000000000000000000000007F014
:100600000000000000000000000000000007F800EB
:100610000000000000000000000000000FF80000D3
:100620000003C0007E000001E0007F0FF800000022
:1006300003C000FE000001E000FFEFF8000000032F
:10064000C000FE000001E000FFFFF800000003C052
:1006500000F00000000F007FFE7FC0000003C0001C
:10066000F00000000F003FFE7FF83FF1FBCFFCFEE3
:10067000F3BC3DEFE01FFE7FFF7FFBFFDFFEFEFFD1
:10068000BC3DEFE01FC6FFFF7FFBFFDFFEFEFFBCB0
:100690003DEFE00FE3C7FE787BC3DE1EF0FFBC3DFD
:1006A000EF0007FF87FC787BC3DE1EF0F83C3DEFD0
:1006B0000001FFFFF0007BC3C01EF0F03C3DEF00E7
:1006C00001F37FE03FFBC3CFFEF0F03C3DEF0003C2
:1006D000E33F807FFBC3DFFEF0F03C3DEF0007E728
:1006E0003C00787BC3DE1EF0F03C3DEF0007FFBE10
:1006F00000787BC3DE1EF0F03C3DEF0007FFFE00FC
:10070000787BC3DE1EF0F03C3DEF000FFFFE007F64
:10071000FBFFDFFEF0F03FFDEFE00FFFFF007FFB90
:10072000FFDFFEF0F03FFDEFE00FF9FF003E79F94B
:10073000CF9EF0F01F3DE7E01FF1FF00000000003A
:10074000000000000000001F80FF007FFFFFFFFF90
:10075000FFFFFFFFFFE01C007F007FFFFFFFFEB4F5
:100760006D888D18E000001F007FFFFFFFFE95AD34
:100770007DB577E000000F007FFFFFFFFEA5AD9D78
:100780008D19E0000006007FFFFFFFFEB5ADEDB55F
:100790007EE000000000000180000000000000007A
:1007A0000000038000000000000000000007C000FF
:1007B000000000000000000007C000000000000072
:1007C0000000000FC00000000000000000001FE05B
:1007D0000000000000000000001FE000000000001A
:1007E000000000003FE00000000000000000003FAB
:1007F000F00000000000000000007FF0000000009A
:100800000000001FF87FF0000000000000003FFE25
:100810007FF0000000000000003FFF7FF0000000BC
:10082000000000001FFFFBE0000000000000000FC0
:10083000FFF9FFC00000000000000FFFF9FFF80003
:10084000000000000007FFF1FFFF000000000000B3
:1008500003FC73FFFF80000000000001FE3FFFFF6C
:1008600080000000000000FF1E0FFF0000000000DD
:1008700000007FFE1FFC000000000000003FFFFFA3
:10088000F8000000000000000FDFFFE000000000A3
:100890000000001F19FFC0000000000000003F3CE6
:1008A000FF00000000000000007E7CF80000000057
:1008B000000000007FFE7C0000000000000000FF40
:1008C000FFFC0000000000000000FFFFFE00000031
:1008D0000000000000FFFFFE00000000000000011B
:1008E000FFEFFE0000000000000001FFCFFE00004F
:1008F000000000000003FF07FE00000000000000F1
:1009000003FC07FE0000000000000003F003FE00EF
:10091000000000000000018000FE00000000000058
:10092000000000007E000000000000000000003E0B
:10093000000000000000000000000C0000000000AB
:1009400000078000FC000003C0000000078001FCDD
:10095000000003C0000000078001FC000003C0008D
:100960000000078001E00000001E00000007800179
:10097000E00000001E007FE3F79FF9FDE7787BDFD2
:10098000C0FFF7FFBFFDFDFF787BDFC0FFF7FFBFB4
:10099000FDFDFF787BDFC0F0F787BC3DE1FF787B92
:1009A000DE00F0F787BC3DE1F0787BDE0000F787E2
:1009B000803DE1E0787BDE007FF7879FFDE1E07816
:1009C0007BDE00FFF787BFFDE1E0787BDE00F0F71C
:1009D00087BC3DE1E0787BDE00F0F787BC3DE1E0DD
:1009E000787BDE00F0F787BC3DE1E0787BDE00FF3E
:1009F000F7FFBFFDE1E07FFBDFC0FFF7FFBFFDE1D9
:100A0000E07FFBDFC07CF3F39F3DE1E03E7BCFC0A6
:100A10000000000000000000000000FFFFFFFFFFDB
:100A2000FFFFFFFFFFC0FFFFFFFFFD68DB111A3173
:100A3000C0FFFFFFFFFD2B5AFB6AEFC0FFFFFFFF68
:100A4000FD4B5B3B1A33C0FFFFFFFFFD6B5BDB6AB7
:100A5000FDC02200FF210001020408102040800197
:100A600002040810200102040810200000000025E4
:100A70000028002B000404040404040404020202FD
:100A8000020202030303030303023D1ED5301124B7
:100A90001FBECFEFD8E0DEBFCDBF24E0A2EFB1E0B4
:100AA00001C01D92A434B207E1F711E0A0E0B1E06B
:100AB000E4E8F7E602C005900D92A23FB107D9F72E
:100AC00015E0C6E4D5E004C02197FE010E94A031E4
:100AD000C534D107C9F70E94731F0C94B5330C9429
:100AE0000000089596E0899FD0011124A459BC4FBD
:100AF00090967C936E935F9791E091969C939197DB
:100B0000E091D903F091DA039091D803992339F059
:100B1000309751F0811108C0809188030994309773
:100B200019F05C968C91FACF089508950895AF92CC
:100B3000BF92CF92DF92EF92FF920F931F93CF93CA
:100B4000DF936C017B018B01040F151FEB015E012C
:100B5000AE18BF08C017D10759F06991D601ED91C1
:100B6000FC910190F081E02DC6010995892B79F760
:100B7000C501DF91CF911F910F91FF90EF90DF9012
:100B8000CF90BF90AF900895FC01538D448D252FD9
:100B900030E0842F90E0821B930B541710F0CF9617
:100BA000089501970895FC01918D828D981761F049
:100BB000A28DAE0FBF2FB11D5D968C91928D9F5F60
:100BC0009F73928F90E008958FEF9FEF0895FC013F
:100BD000918D828D981731F0828DE80FF11D858DF2
:100BE00090E008958FEF9FEF0895FC01918D228D85
:100BF000892F90E0805C9F4F821B91098F7399270A
:100C000008958FEC92E00E94F50521E0892B09F40C
:100C100020E0822F089580E090E0892B29F00E9447
:100C2000010681110C9400000895FC01A48DA80F09
:100C3000B92FB11DA35ABF4F2C91848D90E001961E
:100C40008F739927848FA689B7892C93A089B1893E
:100C50008C91837080648C93938D848D981306C0DF
:100C60000288F389E02D80818F7D80830895EF9243
:100C7000FF920F931F93CF93DF93EC0181E0888F56
:100C80009B8D8C8D98131AC0E889F989808185FF26
:100C900015C09FB7F894EE89FF896083E889F989C8
:100CA00080818370806480839FBF81E090E0DF91CA
:100CB000CF911F910F91FF90EF900895F62E0B8D1D
:100CC00010E00F5F1F4F0F731127E02E8C8D8E11D8
:100CD0000CC00FB607FCFACFE889F989808185FF3F
:100CE000F5CFCE010E941506F1CFEB8DEC0FFD2F55
:100CF000F11DE35AFF4FF0829FB7F8940B8FEA89FA
:100D0000FB8980818062CFCFCF93DF93EC01888D08
:100D10008823B9F0AA89BB89E889F9898C9185FD76
:100D200003C0808186FD0DC00FB607FCF7CF8C9104
:100D300085FFF2CF808185FFEDCFCE010E941506A1
:100D4000E9CFDF91CF910895833081F028F481308D
:100D500099F08230A9F008958730A9F08830C9F061
:100D60008430B1F4809180008F7D03C08091800039
:100D70008F7780938000089584B58F7784BD089520
:100D800084B58F7DFBCF8091B0008F778093B000CA
:100D900008958091B0008F7DF9CFCF93DF93282FF6
:100DA00030E0F901E457FA4F8491F901E95AF54F1F
:100DB000D491F901EB58F54FC491CC23A1F08111E6
:100DC0000E94A406EC2FF0E0EE0FFF1FEE57FA4F43
:100DD000A591B491EC91ED2381E090E009F480E0DD
:100DE000DF91CF91089580E090E0FACF862F0C94A8
:100DF000CD061F93CF93DF93282F30E0F901E457FE
:100E0000FA4F8491F901E95AF54FD491F901EB5861
:100E1000F54FC491CC23A9F0162F81110E94A4068E
:100E2000EC2FF0E0EE0FFF1FE559F54FA591B491BF
:100E30008FB7F894EC91111108C0D095DE23DC93A4
:100E40008FBFDF91CF911F910895DE2BF8CF862FB2
:100E5000642F0C94F9069091000189130BC0E9E806
:100E6000FAE0E4919FEF90930001E13049F028F01F
:100E7000E23061F060E00C94F90610926E00FACF57
:100E800090916F009D7F90936F00F4CF90917000D0
:100E90009D7F9093700091E09093B0009091B1008D
:100EA000987F94609093B1001092B300E3CFCF93FA
:100EB000DF9390E0FC01E95AF54F24918B58954F50
:100EC000FC0184918823C9F090E0880F991FFC01F0
:100ED000E858FA4FA591B491FC01E559F54FC59139
:100EE000D49161110DC09FB7F8948C912095822305
:100EF0008C938881282328839FBFDF91CF91089509
:100F0000623051F49FB7F8943C91822F80958323EF
:100F10008C93E8812E2BEFCF8FB7F894EC912E2B8A
:100F20002C938FBFEACF4F925F926F927F928F92F6
:100F30009F92AF92BF92CF92DF92EF92FF920F9368
:100F40001F93CF93DF9300D000D01F92CDB7DEB7B1
:100F50008C0149835A836B837C83809100018830A4
:100F6000C9F08F3F09F4B2C00F900F900F900F900F
:100F70000F90DF91CF911F910F91FF90EF90DF9035
:100F8000CF90BF90AF909F908F907F906F905F9029
:100F90004F900895E9E8FAE024912D8327FDE4CFEE
:100FA00061E088E00E9457079D814801B12CA12C87
:100FB000992301F1F12CE12C2D81223009F03AC165
:100FC0004801570160E970ED83E090E0A7019801C6
:100FD0000E94813169017A0181E0C81AD108E108D3
:100FE000F10883E09FEFC916D104E104F10409F090
:100FF0000CF465C060E072E18AE790E0A50194011D
:101000000E94813129013A0168E478EE81E090E0A4
:10101000A50194010E94813169017A0181E0C81A19
:10102000D108E108F1089D81992309F464C1923047
:1010300009F06BC184E02FEFC216D104E104F10482
:10104000F1F1ECF164E274EF80E090E0A50194012D
:101050000E94813169017A0181E0C81AD108E10852
:10106000F10885E02FEFC216D104E104F10439F153
:1010700030F162E17AE780E090E0A50194010E94FE
:10108000813169017A0181E0C81AD108E108F108CB
:1010900086E09FEFC916D104E104F10481F07CF0F1
:1010A000730162012AE0F594E794D794C7942A95D6
:1010B000D1F791E0C91AD108E108F10887E09091D1
:1010C000B100987F892B8093B1008DC088E0809318
:1010D0000001E9E8FAE084918D838F3F09F444CF61
:1010E000813029F158F0823009F43FC08D8187FDAD
:1010F0003BCF61E088E00E9457075CCF14BC15BC71
:1011000084B5826084BD85B5816085BDEDE7FAE078
:10111000E491F0E0EE0FFF1FE559F54F85919491B2
:10112000EFE5FAE0E491E093BE021D8239CF109220
:1011300080001092810080918100886080938100FE
:1011400080918100816080938100EDE7FAE0E49175
:10115000F0E0EE0FFF1FE559F54F85919491EFE513
:10116000FAE0E491E093BD021BCF1092B000109220
:10117000B1008091B00082608093B0008091B10096
:1011800081608093B100EDE7FAE0E491F0E0EE0FCA
:10119000FF1FE559F54F859194919093BC02809380
:1011A000BB02EFE5FAE0E491E093BA02F9CE62E126
:1011B0007AE780E090E0A50194010E948131690105
:1011C0007A0191E0C91AD108E108F1082FEFC2169F
:1011D000D104E104F10411F00CF07DC094E085B578
:1011E000887F892B85BDD801AA0FBB1F29813A8131
:1011F0004B815C810E940E3128EE33E040E050E0EC
:101200000E945F318D81813009F443C0823009F43E
:1012100052C08111A9CEC7BC2093C7023093C80227
:101220004093C9025093CA0280916E0082608093FD
:101230006E009ACE60E072E18AE790E0A701980123
:101240000E948131DA01C9010197A109B109009712
:1012500021E0A207B10564F46C0191E02D812130F9
:1012600011F680918100887F892B80938100BBCF0C
:1012700068E478EE81E090E0A70198010E94813156
:1012800069017A0181E0C81AD108E108F10893E008
:10129000E5CFD0928900C09288002093C30230939A
:1012A000C4024093C5025093C60280916F008260D1
:1012B00080936F0059CEC092B3002093BF02309349
:1012C000C0024093C1025093C202809170008260BC
:1012D0008093700049CE730162019AE0F594E7941F
:1012E000D794C7949A95D1F721E0C21AD108E108A2
:1012F000F10895E074CF9FEFC916D104E104F10421
:1013000011F00CF054CF93E06ACF84E0ABCE862F7F
:10131000642F0C9457073FB7F89480919F029091E7
:10132000A002A091A102B091A20226B5A89B05C07F
:101330002F3F19F00196A11DB11D3FBFBA2FA92F54
:10134000982F8827BC01CD01620F711D811D911D51
:1013500042E0660F771F881F991F4A95D1F70895BD
:101360008F929F92AF92BF92CF92DF92EF92FF92B5
:101370004B015C010E948B096B017C010E948B096F
:101380006C197D098E099F09683E7340810591059E
:10139000A8F321E0821A9108A108B10888EEC80ECE
:1013A00083E0D81EE11CF11C81149104A104B10456
:1013B00029F7FF90EF90DF90CF90BF90AF909F9074
:1013C0008F9008952FB7F89460919B0270919C02C2
:1013D00080919D0290919E022FBF08950F931F93BD
:1013E000CF93DF93C82FD62F86E0C89FF00111243A
:1013F000E459FC4F11A2878D90A181309105F1F045
:1014000058F082309105F1F1039709F440C0DF9163
:10141000CF911F910F9108956623C9F361E070E0A9
:101420008C2F0E9472050E94E2096093C40370939E
:10143000C5038093C6039093C703E9CF0E94E209D6
:101440000091C4031091C5032091C6033091C703D6
:10145000AB01BC01401B510B620B730B8091D60397
:101460009091D703B0E0A0E084179507A607B707CF
:1014700048F462E070E08C2FDF91CF911F910F91C3
:101480000C94720563E070E0D111C1CFF4CF70E02D
:1014900060E0F1CF85ED8093BC008091BC0084FDBD
:1014A000FCCF1092A902089520915302260F3327F2
:1014B000331F21323105ECF42091A902FC0190E0A8
:1014C00080E0243069F082E00895A09153022191D8
:1014D000AC014D5C5D4FA40FB52FB11D2C9301964F
:1014E000861798F380915302680F6093530280E04F
:1014F000089581E00895E091AB028091AA02E81777
:1015000030F4F0E0ED5EFD4F808190E008958FEFC4
:101510009FEF08959091AB028091AA022FEF3FEFC9
:10152000981748F4E92FF0E0ED5EFD4F208130E0A0
:101530009F5F9093AB02C90108958091AA02909198
:10154000AB02891B990B0895CF92DF92EF92FF9225
:101550000F931F93CF93DF937C01CB018A012091DE
:10156000CE02222389F0EB016B01C40ED51ECC15EF
:10157000DD0569F06991D701ED91FC910190F08151
:10158000E02DC7010995F3CF642F0E94540AC801CA
:10159000DF91CF911F910F91FF90EF90DF90CF904F
:1015A0000895CF93DF931F92CDB7DEB76983209163
:1015B000CE022223F9F02091CB02203258F021E014
:1015C00030E0FC013383228390E080E00F90DF91D4
:1015D000CF9108958091CC02E82FF0E0ED50FE4FBE
:1015E000998190838F5F8093CC028093CB0281E0BE
:1015F00090E0ECCF61E0CE0101960E94540AF7CF53
:101600002091CB0281E0213208F044C08091A902F0
:101610008111FCCF8091CD0292E09093A90291E0DC
:101620009093A8029FEF90937602109298022093D5
:101630009702A3EFB1E0E7E7F2E090E0291331C0B1
:101640001092990290919902880F892B80939902A8
:101650008091A702813049F51092A70280919902EA
:101660008093BB008091BC0083FDF8CF85EC809314
:10167000BC008091A9028230E1F3809176028F3F15
:10168000B1F0809176028032A1F0809176028033B1
:1016900091F084E01092CC021092CB021092CE0214
:1016A00008953D9131939F5FC9CF85EEE0CF80E0F3
:1016B000F1CF82E0EFCF83E0EDCFEF92FF920F9377
:1016C0001F93CF93DF93EC01EC80FD806E157F05B7
:1016D0000CF070C057FF04C0240F351F50E040E0ED
:1016E0008E819F81FA01E20FF31F8E179F071CF472
:1016F0009C01241B350B121613060CF05BC0922FB5
:10170000842F8695869586958E9DD0018F9DB00DF0
:1017100011246A0F7B1FAF8DB8A1A60FB71F4770AA
:1017200049F188E0841B482F682F70E0FB01E059E5
:10173000FA4FE491281708F063C0621B71092FEF7C
:1017400030E002C0359527956A95E2F7E223013033
:10175000110539F0B0F10230110561F58C91E827DF
:1017600002C08C91E82BEC93941720F12C813D81E1
:10177000A20FB31FE92FE41BE83078F00230110507
:1017800021F58E2F9C9190959C932C813D81A20FE9
:10179000B31F88508830B0F7E770EE2359F0F0E0BF
:1017A000E859FA4FE49101301105F9F010F10230D7
:1017B000110519F1DF91CF911F910F91FF90EF90DB
:1017C0000895E0958C91E823CECF81E001151105B5
:1017D00009F480E081959E2F8C932C813D81A20F8E
:1017E000B31F98509830C0F7D7CF8C91E82BEC936B
:1017F000E1CFE0958C91E823FACF8C91E827F7CFE1
:101800000130110509F4ADCFE0F20230110509F401
:10181000A5CFAE0DBF1DAECF0F931F93CF93DF9318
:1018200077FF04C0260F371F70E060E0DC011496DC
:10183000CD91DC91FB01E20FF31FCE17DF071CF403
:101840009E01261B370B121613064CF5FA0157FDA5
:101850003796A3E0F595E795AA95E1F7EC9FD001BF
:10186000ED9FB00DFC9FB00D11246A0F7B1FDC01B2
:101870005F96ED91FC91E60FF71F4770552781E0C9
:1018800090E001C0880F4A95EAF7482F0130110512
:1018900059F0A8F02E0F3F1F02301105E1F0DF9143
:1018A000CF911F910F9108952E0F3F1FE217F3075D
:1018B000B1F38191DF011197842B8C93F7CF809541
:1018C0002E0F3F1FE217F30751F39191DF0111979C
:1018D00098239C93F7CFE217F30709F38191DF0177
:1018E000119784278C93F7CF0F931F93FA01DC0194
:1018F00056964C9156974230E9F04330A1F1413071
:1019000061F514964D915C91DA01AE1BBF0BFD01A0
:10191000E21BF30B77FD0BC0DC0116964D915C9139
:101920006417750724F4AB01BF010E940C0C1F91D2
:101930000F91089514964D915C91DA01A61BB70B97
:10194000BD0161507109DC0116964D915C91DA017F
:10195000AE1BBF0BFD01E21BF30B77FDE8CFAF0120
:101960000E945D0BE4CF16964D915C91DA01A61BA7
:10197000B70BBD0161507109CDCF0F931F93FA01D1
:10198000DC0156964C9156974230A9F0433091F1C4
:10199000413019F514964D915C91DA01AE1BBF0BE5
:1019A000FD013197F7FD04C0AB01BF010E945D0B43
:1019B0001F910F91089514964D915C91DA01A61B29
:1019C000B70BBD01DC0116964D915C91DA01AE1B9F
:1019D000BF0BFD013197621B730BF7FDE9CFDC01F3
:1019E00016964D915C91E417F50714F7AF010E942C
:1019F0000C0CDECF16964D915C91DA01A61BB70B4D
:101A0000BD01621B730BCECFFC0177FD64C08085E6
:101A10009185681779070CF05EC057FD5CC0828520
:101A20009385481759070CF056C086898230B1F06B
:101A3000833029F1813041F484819581841B950B99
:101A4000AB01BC01615071092130310509F108F485
:101A500043C02230310509F463C008958481958123
:101A6000DC01A61BB70BBD0161507109868197810E
:101A7000DC01A41BB50BAD0141505109E5CF8681B6
:101A80009781861B970BBA01AC0141505109DCCFFD
:101A9000CA0157FD0796A3E095958795AA95E1F7AA
:101AA000A481B5818A9F90018B9F300D9A9F300D44
:101AB0001124620F731F078CF0A1E02DE60FF71FB2
:101AC0004770552721E030E001C0220F4A95EAF720
:101AD0008081822B80830895CA0157FD079633E0E9
:101AE000959587953A95E1F7A481B5818A9F9001F4
:101AF0008B9F300D9A9F300D1124620F731F078C3E
:101B0000F0A1E02DE60FF71F4770552781E090E028
:101B100001C0880F4A95EAF7809590818923DACF32
:101B2000CA0157FD079623E0959587952A95E1F719
:101B3000A481B5818A9F90018B9F300D9A9F300DB3
:101B40001124620F731F078CF0A1E02DE60FF71F21
:101B50004770552721E030E001C0220F4A95EAF78F
:101B600080818227B7CF0895FC016370668B8481E2
:101B7000958126813781613039F0633029F0918772
:101B800080873387228708953187208793878287CC
:101B900008952F923F924F925F926F927F928F9211
:101BA0009F92AF92BF92CF92DF92EF92FF920F93EC
:101BB0001F93CF93DF93CDB7DEB76A970FB6F89434
:101BC000DEBF0FBECDBF9A8F898F7A8369834A01AA
:101BD000D22E18870F833701BC2CDC0159962D912A
:101BE0003C915A972115310509F015C118968D9130
:101BF0009C911997681779070CF0D7C11A968D91A7
:101C00009C91481759070CF0D0C14C2C512CB6E0D0
:101C1000CB9E600D711D11247C876B8716161706ED
:101C20000CF0C3C1EA2DF0E0FA87E98793E0EE0FEC
:101C3000FF1F9A95E1F7F88BEF87CF01840F951F6F
:101C4000181619060CF0B1C1A98DBA8D58968C9151
:101C5000811104C0BFEABD1508F4D394A98DBA8DD3
:101C6000ED91FC9111970284F385E02DCD0109954A
:101C7000B5E0DB9EC0011124E981FA81FC83EB838E
:101C8000312C212C9C0128593F4F388F2F8B4A2D06
:101C900050E05E8B4D8BEF89F88DE20DF31D449182
:101CA0009E828D82D12CC12C69817A81620D731D37
:101CB0007A8B698B842F90E09C8B8B8BE98DFA8DCE
:101CC000A081B18140FF82C0F1E0BF126FC0AF12AE
:101CD0006DC01C96ED91FC912F813885A4014C0DAF
:101CE0005D1D69897A89898D9A8D0995EB89FC89B1
:101CF000F595E7954E2F5FEFC51AD50A6D817E8168
:101D00008D899E89680F791F7E836D8398E0C9163F
:101D1000D10481F6AFEF2A1A3A0AEB81FC81E40D77
:101D2000F51DFC83EB83F5E02F16310409F0B3CFEA
:101D30002F81388526153705B9F0A98DBA8DED911B
:101D4000FC91B1E0BB1257C0AB1255C069817A81DA
:101D50006B5F7F4F0088F189E02D830128E030E040
:101D6000A401898D9A8D0995A98DBA8DED91FC916B
:101D700011970688F789E02DCD016A960FB6F89481
:101D8000DEBF0FBECDBFDF91CF911F910F91FF90AE
:101D9000EF90DF90CF90BF90AF909F908F907F900B
:101DA0006F905F904F903F902F9009941E96ED9109
:101DB000FC91EF80F88409851A8592014D815E813E
:101DC0006B817C81898D9A8D099590CF2F81388583
:101DD0002615370509F48ACF31E0B31207C0A312E4
:101DE00005C01C96ED91FC91930178CF1E96ED9164
:101DF000FC917301E0CF6B857C85641975090684BD
:101E0000F785E02D73010F8518899201A401898D52
:101E10009A8D0995A9CFF9013496949132974591FD
:101E20005491D91AB7E0DB9E400D511D1124F901E0
:101E3000259134913C8B2B8BFA0125903490FA013B
:101E40003296749031963491398B329664903196F3
:101E5000449041E04C1518F04A1508F07FC0662DFB
:101E6000062C000C770B7C836B83842D042C000CD8
:101E7000990B9E838D83A98DBA8DED91FC9111975D
:101E80000284F385E02DCD010995512CD12CC12C74
:101E9000EA2DF0E0FA87E9872B2D30E03C872B878D
:101EA000A401440D511D47FC5A95588F4F8B6981F1
:101EB0007A81660D711D67FC7A957E876D877989B9
:101EC000C71608F051CF2C2D30E04D815E81420FB6
:101ED000531FA985BA854A9FC0014B9F900D5A9FF9
:101EE000900D1124FC01E80DF91DF88BEF87852D6D
:101EF000612C4F89588D420F531F5E8B4D8B671499
:101F000008F050C044244394480E877041F4C10146
:101F10000196EB89FC89E20DF31DD4901C01D7FEDC
:101F200019C0A98DBA8DED91FC91662D70E0B1E0DC
:101F3000BB1219C0AB1217C02D853E85620F731FEF
:101F40000484F585E02D2F8138854D895E89898D42
:101F50009A8D0995DD0C6394842DD1CF1E821D824C
:101F60001C821B8288CF4B815C81640F751FAB85FF
:101F7000BC856A9FC0016B9F900D7A9F900D1124C4
:101F800069817A81680F791F0684F785E02DEF80DB
:101F9000F88409851A859D014F855889898D9A8D08
:101FA0000995D8CF570CC3948ACF6A960FB6F89488
:101FB000DEBF0FBECDBFDF91CF911F910F91FF907C
:101FC000EF90DF90CF90BF90AF909F908F907F90D9
:101FD0006F905F904F903F902F9008958F929F92B7
:101FE000AF92CF92EF92FF920F931F93CF93DF9315
:101FF000EC01262F898D9A8D009709F051C06A3027
:10200000D1F41D861C868D8948E0849F900111249F
:102010008E859F85820F931F9F878E8781E090E03A
:10202000DF91CF911F910F91FF90EF90CF90AF90E4
:102030009F908F9008956D3089F3CC88AD888F89FB
:102040008823C1F08C859D8536E0C39E800D911D4F
:102050001124488559854817590764F44E855F85D2
:102060001D861C8638E0A39EC0011124840F951F95
:102070009F878E87EA88FB88088919894E855F8546
:102080006C857D85CE010E94C90D2C898C859D852E
:1020900046E0249F800D911D11249D878C87BECF23
:1020A0006A3069F41D861C86FC013696E4912D8900
:1020B0008E859F85E29F800D911D1124ADCF6D30DF
:1020C00009F4ACCFFC0134963491631708F4A6CF21
:1020D0003196E491E61708F4A1CFFC013296859081
:1020E0009490462F431B342F47E0349F800C911C63
:1020F0001124F401329634913196E4913323A9F1FD
:10210000EE2399F1CC88F4013596E491AD884F899E
:10211000442301F10E2E000CFF0BE30FF11DCE9EA8
:10212000A001CF9E500D11246C857D85460F571F51
:1021300068857985641775076CF44E855F851D8603
:102140001C86FC013696E491AE9E400D511D112473
:102150005F874E87EA88FB88088919894E855F85E5
:102160006C857D85CE010E94C90DF4013496E49101
:102170002C898C859D85E29F800D911D11248DCF2A
:102180006F927F928F929F92AF92BF92CF92DF9287
:10219000EF92FF920F931F93CF93DF93EC016B01AC
:1021A0005A0139014801E881F9810284F385E02D63
:1021B0000995E881F9810288F389E02D870193016F
:1021C000A501B601CE010995A501480D591D415043
:1021D0005109E881F9810288F389E02D9301B60164
:1021E000CE010995E881F9810088F189E02D9401FB
:1021F000A501B601CE010995C60CD71CB6016150E8
:102200007109E881F9810088F189E02D9401A50127
:10221000CE010995E881F9810688F789E02DCE0184
:10222000DF91CF911F910F91FF90EF90DF90CF90B2
:10223000BF90AF909F908F907F906F9009946F9216
:102240007F928F929F92AF92BF92CF92DF92EF9246
:10225000FF920F931F93CF93DF935C01EB016A0111
:10226000490138018701DC01ED91FC916217730788
:1022700019F5641675062CF0962D872D3A01C92E96
:10228000D82E9601261937092F5F3F4F048CF58D04
:10229000E02DA301BE01C5010995DF91CF911F91EA
:1022A0000F91FF90EF90DF90CF90BF90AF909F90F5
:1022B0008F907F906F9008954615570591F42617DB
:1022C000370724F0892D4B01C22FD82F9E012819E2
:1022D00039092F5F3F4F068CF78DE02DA601B40121
:1022E000DACF0284F385E02D0995D501ED91FC91BB
:1022F0000488F589E02D83019401A601BE01C50182
:102300000995D501ED91FC910688F789E02DC5016D
:10231000DF91CF911F910F91FF90EF90DF90CF90C1
:10232000BF90AF909F908F907F906F900994EF92A5
:10233000FF920F931F93DC011A960D911C911B972E
:1023400018962D913C911997ED91FC9100A0F1A167
:10235000E02D7B0150E040E070E060E009951F91C6
:102360000F91FF90EF9008954F925F926F927F923E
:102370008F929F92AF92BF92CF92DF92EF92FF9295
:102380000F931F93CF93DF936C012B015A013901F7
:102390004801DC01ED91FC910284F385E02D099563
:1023A000E201640C751CD601ED91FC91C615D705B0
:1023B0005CF40088F189E02D87019401A501BE013C
:1023C000C60109952196EFCF0688F789E02DC60151
:1023D000DF91CF911F910F91FF90EF90DF90CF9001
:1023E000BF90AF909F908F907F906F905F904F9035
:1023F00009948F929F92AF92BF92CF92DF92EF9209
:10240000FF920F931F93CF93DF93EC015B014A017F
:102410006901E881F9810284F385E02D0995950130
:102420002C0D3D1D21503109E881F9810488F58981
:10243000E02D78018401A401B501CE010995E88160
:10244000F9810688F789E02DCE01DF91CF911F91A8
:102450000F91FF90EF90DF90CF90BF90AF909F9043
:102460008F9009948F929F92AF92BF92CF92DF92FA
:10247000EF92FF920F931F93CF93DF93EC015B01D9
:102480004A0169017801E881F9810284F385E02D30
:102490000995C80CD91C860101501109E881F98100
:1024A0000488F589E02D9501A401B501CE010995B7
:1024B000E881F9810688F789E02DCE01DF91CF917F
:1024C0001F910F91FF90EF90DF90CF90BF90AF9052
:1024D0009F908F900994EF92FF920F931F93DC01CE
:1024E000ED91FC9100A0F1A1E02D09951F910F91B4
:1024F000FF90EF9008950F931F93DC01ED91FC91F5
:10250000068CF78DE02D09951F910F9108950F937B
:102510001F93DC01ED91FC91048CF58DE02D099564
:102520001F910F910895DC01ED91FC910084F185DC
:10253000E02D09943F924F925F926F927F928F921B
:102540009F92AF92BF92CF92DF92EF92FF920F9342
:102550001F93CF93DF935C017B014A01690139012D
:1025600087E0680E711C93E0759467949A95E1F783
:102570002B01400E511E10E000E0312CD0E0C0E0F5
:10258000CE0187709927330C892B59F4FE0183E023
:10259000F595E7958A95E1F7E00FF11FE80DF91D34
:1025A000349037FE0AC021E030E0A701B5016C0F7E
:1025B0007D1F80EF93E00E9493122196CC16DD06DA
:1025C000F9F68FEFE81AF80A060D171DE414F50462
:1025D000A9F6DF91CF911F910F91FF90EF90DF90BF
:1025E000CF90BF90AF909F908F907F906F905F90B3
:1025F0004F903F9008952F923F924F925F926F922B
:102600007F928F929F92AF92BF92CF92DF92EF9282
:10261000FF920F931F93CF93DF9300D000D000D091
:10262000CDB7DEB73C016A013E832D83FC82EB828D
:102630005801A41AB50AB7FE03C0B194A194B10819
:102640008D809E80861A970A97FE03C0919481948C
:1026500091088A149B045CF0902F812F0D811E81BC
:102660009D838E839C2D8D2D6B01692F782F0C15EA
:102670001D055CF09D818E817E836D83692F782F8F
:10268000902F812F8601C92ED82E1601201A310ACB
:102690002B012D813E81421A530A57FE03C05194EB
:1026A00041945108710137FE03C03FEFE31AF30A6A
:1026B000F594E7948D819E81861797075CF5A1E0DC
:1026C000B0E0BA83A983C016D1064CF1D301ED91D5
:1026D000FC910484F585E02D2B813C81A8016D815E
:1026E0007E818A149B041CF04D815E81B801C30178
:1026F0000995E418F508F7FE0AC02D813E8189810D
:102700009A81280F391F3E832D83E20CF31C0F5F43
:102710001F4FD9CF2FEF3FEF3A832983D4CF26968F
:102720000FB6F894DEBF0FBECDBFDF91CF911F91E2
:102730000F91FF90EF90DF90CF90BF90AF909F9060
:102740008F907F906F905F904F903F902F90089563
:10275000089590E080E00895BC016E5F7F4FDC013A
:10276000ED91FC910190F081E02D40E0099591E020
:10277000811190E0892F089508958EBD00000DB459
:1027800007FEFDCF8EB50895FF920F931F93CF9351
:10279000DF93F82ED92FC62F80910D0490910E044F
:1027A000009709F452C02091110431E03093CE0219
:1027B0002093CD021092CC021092CB02DC01ED915D
:1027C000FC910190F081E02D60E009950F2D1D2F07
:1027D000D1E0FF24F394C15080910D0490910E0438
:1027E000CF3F61F1D032C8F00E94000B80910D0400
:1027F00090910E0420911104F092CE022093CD020C
:102800001092CC021092CB02DC01ED91FC91019070
:10281000F081E02D60E00995D1E080910D04909168
:102820000E04F8016491DC01ED91FC910190F081BE
:10283000E02D0995DF5F0F5F1F4FCDCFDF91CF9167
:102840001F910F91FF900C94000BE0911D04F091EB
:102850001E049081809123048095892380830F2D0D
:102860001D2FC15008F438C0F801849120910B0449
:1028700030910C04232B29F00E94BD130F5F1F4FD2
:10288000F0CF28E030E040E8E0911904F0911A041C
:1028900090912104582F5423D9F05081952B908387
:1028A000E0911B04F0911C04908150912204952B1F
:1028B0009083E0911B04F0911C04508190912204BC
:1028C000909595239083469521503109E9F6D6CF0E
:1028D000508190959523E3CFDF91CF911F910F9178
:1028E000FF9008951F93CF93DF93EC018D8D9E8D04
:1028F000009721F1162F29A131E03093CE022093C9
:10290000CD021092CC021092CB02DC01ED91FC9131
:102910000190F081E02D60E009958D8D9E8DDC01A8
:10292000ED91FC910190F081E02D612F09958D8D45
:102930009E8DDF91CF911F910C94000BADA5BEA58C
:102940009C918BA9809589238C938B8D9C8D892B51
:1029500031F0862FDF91CF911F910C94BD1328E0A9
:1029600030E080E8A9A5BAA599A9462F4823C1F06F
:102970004C91942B9C93ABA5BCA59C914AA9942BFC
:102980009C93ABA5BCA54C919AA9909594239C933C
:1029900086952150310931F7DF91CF911F9108952C
:1029A0004C9190959423E6CF8CBD9DBD0895EF92F8
:1029B000FF920F931F93CF93DF9380910D0490911B
:1029C0000E04892B09F493C020912504309126042C
:1029D000409127045091280460E074E284EF90E075
:1029E0000E945F312051310941095109569547959F
:1029F000379527952093B80065E082E59AE00E941C
:102A0000C4136091F403615080EF93E00E9472144C
:102A10002091F6033091F703C901079697FD0796B9
:102A200023E0959587952A95E1F72091F40330915D
:102A3000F503829F8001839F100D929F100D11243A
:102A4000C0910F04D091100480910D0490910E0458
:102A50000C0F1D1F009709F489C02091110431E06B
:102A60003093CE022093CD021092CC021092CB0272
:102A7000DC01ED91FC910190F081E02D60E409957D
:102A8000FF24F394EE24E39480910D0490910E04BE
:102A90000C171D0709F442C0BFE1BF15D0F40E9416
:102AA000000B80910D0490910E0420911104E0928E
:102AB000CE022093CD021092CC021092CB02DC0108
:102AC000ED91FC910190F081E02D60E40995FF24E7
:102AD000F39480910D0490910E046991DC01ED91C5
:102AE000FC910190F081E02D0995F394CDCF809178
:102AF0000B0490910C04892B31F080912E0490915D
:102B00002F040E94D414E0911F04F09120049081BE
:102B1000809124048095892380836ECF0E94000BCE
:102B200080910D0490910E04892B09F460C02091CE
:102B3000290430912A0440912B0450912C0460E028
:102B400074E284EF90E00E945F3120513109410925
:102B5000510956954795379527952093B800DF91F1
:102B6000CF911F910F91FF90EF900895E0911D0478
:102B7000F0911E04808190912304892B80830C178F
:102B80001D0771F2899120910B0430910C04232BC5
:102B900019F00E94BD13F3CF28E030E040E8E09147
:102BA0001904F0911A0490912104582F5423D9F05C
:102BB0005081952B9083E0911B04F0911C0490812F
:102BC00050912204952B9083E0911B04F0911C04FA
:102BD00050819091220490959523908346952150A1
:102BE0003109E9F6CCCF508190959523E3CFE09160
:102BF0001F04F0912004808190912404892B80830C
:102C0000AECFDF92EF92FF920F931F93CF93DF939C
:102C10007C01062FD42E152F83E590E00E94D4145A
:102C200060E0F70186850E94F90682E10E94BD13EB
:102C3000CD2DD12F0C0F1D2F111DC017D10721F045
:102C400089910E94BD13F9CF61E0F7018685DF917C
:102C5000CF911F910F91FF90EF90DF900C94F906A8
:102C60001F93CF93DF93EC01162F8D8D9E8D892BB3
:102C7000B1F12DA93EA94FA958AD60E074E284EFEF
:102C800090E00E945F312051310941095109569568
:102C90004795379527952093B80066EA111167EAA2
:102CA000CE010E9472148D8D9E8D892B41F129AD2C
:102CB0003AAD4BAD5CAD60E074E284EF90E00E9411
:102CC0005F31205131094109510956954795379592
:102CD00027952093B800DF91CF911F9108958B8D98
:102CE0009C8D892B21F08EAD9FAD0E94D414EFA551
:102CF000F8A990818CA9809589238083CECFEFA5F8
:102D0000F8A980819CA9892B8083E5CF1F93CF935D
:102D1000DF93EC01162F83E590E00E94D41460E06D
:102D20008E850E94F906812F80680E94BD1380E085
:102D30000E94BD13182F61E08E850E94F906812F35
:102D4000DF91CF911F9108950F931F93CF93DF933E
:102D5000EC01062F142F83E590E00E94D41460E06C
:102D60008E850E94F906802F0E94BD13812F0E943C
:102D7000BD1361E08E85DF91CF911F910F910C946F
:102D8000F906CF92DF92EF92FF920F931F93CF93AA
:102D9000DF93EC016B01142F790140E062E00E94A7
:102DA000A41644E06AE0CE010E94A41640E864E163
:102DB000CE010E94A416A601612FCE010E94011629
:102DC00043E062E0CE010E94A41608E813E16AE045
:102DD000CE010E94861682FF1BC040E062E0CE0159
:102DE0000E94A41664E4CE010E948616F701808337
:102DF00062E4CE010E948616F701818380E0DF91B4
:102E0000CF911F910F91FF90EF90DF90CF90089599
:102E100001501109E1F683E0F2CF3F924F925F92A9
:102E20006F927F928F929F92AF92BF92CF92DF92DA
:102E3000EF92FF920F931F93CF93DF9300D0CDB704
:102E4000DEB74C012B01D42E390180E0E114F104EE
:102E500011F0F7018081BC2CB29490EFB922B80E2A
:102E600040E062E0C4010E94A4164FE768E0C4019C
:102E70000E94A41640E864E1C4010E94A416A201C5
:102E80006D2DC4010E9401164B2D6AE1C4010E9400
:102E9000A4164CE062E0C4010E94A4166AE1C401D9
:102EA0000E948616482F40686AE1C4010E94A41659
:102EB00020ED422E27E0522E68E0C4010E948616C3
:102EC000982F907309F0B6C080FD04C0F1E04F1A4E
:102ED000510891F783E094C06114710409F46DC046
:102EE0000115110509F469C064E1C4010E94861648
:102EF000B82EF80180818B1508F496C0B082BB20F3
:102F0000E1F183E590E00E94D41460E0F40186854D
:102F10000E94F906BA9482E90E94BD13CC20B1F058
:102F20008FEF90E09C0102C0220F331FCA94E2F79A
:102F3000690182E90E94BD139C2D9095F3012081C7
:102F400092238C21982B9083CC24C39423014C0C86
:102F5000511CCB1440F482E90E94BD13F20181930D
:102F60002F01C394F6CF80E00E94BD13F20180834D
:102F700061E0F40186850E94F90668E1C4010E94BF
:102F800086168770E114F10411F0F701808333FC99
:102F90004DC06114710409F44BC00115110509F409
:102FA00047C0AA2009F444C0F8014081413039F4F7
:102FB000843009F049C08FEF23C080E0E8CF423071
:102FC00008F442C0811140C042509E012F5F3F4F24
:102FD000B301C4010E94C116811112C0F801908191
:102FE000690E711CF30132972081998129132CC03D
:102FF000F1E06F1A7108F30120819A81291324C02E
:103000000F900F90DF91CF911F910F91FF90EF9054
:10301000DF90CF90BF90AF909F908F907F906F90F8
:103020005F904F903F90089584E0EACF82E0E8CF30
:1030300080E0E6CF6CE0C4010E948616382E8371D2
:1030400009F44ACF81E0DCCF87E0DACF8F929F92FC
:10305000AF92CF92DF92EF92FF920F931F93CF9395
:10306000DF9300D000D0CDB7DEB74C0180E5898377
:103070001A829E012D5F3F4F42E0BE016F5F7F4F7E
:10308000C4010E94C116D82E811116C0A12CC12CDA
:10309000F12CE12C10E000E030E020E044E0BE0143
:1030A0006F5F7F4FC4010E940D17833029F0D82E27
:1030B000811102C0DD24D3948D2D0F900F900F90BD
:1030C0000F90DF91CF911F910F91FF90EF90DF90C4
:1030D000CF90AF909F908F9008950F931F93CF93B1
:1030E000DF938C01D62FC42F0E948616C0954C2FDB
:1030F00048236D2FC801DF91CF911F910F910C9440
:10310000A41648E060E180E394E00C946D188F927F
:103110009F92AF92CF92EF92FF920F931F93CF9314
:10312000DF9300D000D01F92CDB7DEB74C0182E014
:103130008D8340E064E2C4010E94A41640E066E290
:10314000C4010E94A41646E268E4C4010E94A416C9
:1031500086E28B838D818230B0F140E86CE1C4015E
:103160000E946D1887E08C83A12CC12CCE0104969F
:103170007C018E010B5F1F4F9E012F5F3F4F41E08F
:10318000BE016D5F7F4FC4010E940D17982F811102
:1031900017C08D818230B9F48C81811114C081E017
:1031A0000F900F900F900F900F90DF91CF911F9184
:1031B0000F91FF90EF90CF90AF909F908F900895D8
:1031C00081E0923069F380E0EBCF2F923F924F92F3
:1031D0005F926F927F928F929F92AF92BF92CF92A7
:1031E000DF92EF92FF920F931F93CF93DF93CDB7B0
:1031F000DEB72D970FB6F894DEBF0FBECDBF16E039
:10320000413508F045C1342E4B013C0140E86CE1EA
:103210000E946D1883E98983332029F081E0F4014D
:103220009081953008F480E022242394B12C9B2DCA
:10323000990F990F990FD32CD91AD7FCD12C32E0C2
:10324000882319F098E89B8333E021E09D2D977047
:1032500009F420E09D2D959595959595290FC9F038
:1032600094E0811193E0291708F4922FEB2DF0E000
:103270003196E80DF91D232F4191A1E0B0E0AC0F8C
:10328000BD1FA20FB11D4C932F5F422F431B491747
:1032900098F3882311F0F8E0DF0E8FE18D150CF024
:1032A00082C090E79A838B819C8189279D818927A1
:1032B0009E8189278F839E01285F3F4F47E0BE0193
:1032C0006F5F7F4FC3010E94C116182F8111E0C0AC
:1032D0001A86E3E0EB87DC86CE0107962C0199E0A5
:1032E0009D87CA844C2D4295407F4C0D6AE1C301F5
:1032F0000E94A416A12CCE010A967C018E01055FC6
:103300001F4F92014D85BE016F5F7F4FC3010E9429
:103310000D17182F823009F065C06CE1C3010E94BF
:10332000861685FDB5C08F7109F480E2282F30E044
:103330004D2DDD0C550B421753070CF09DC0D82EB8
:10334000E82FE595E595E595EF5F982F977081E07B
:1033500009F480E0E80F81E090E08C0F9D1F8E0F54
:10336000911DFC01215031092770332781E090E045
:1033700002C0880F991F2A95E2F79C018081822B59
:1033800080838BCF85E98983332031F081E0F4019C
:103390009081983008F04BCF80E049CF87E989834E
:1033A00026E0B22EF9CF9D2D97709A878D2D8595A9
:1033B000859585958E5F282F2295207F290F2A835A
:1033C00021E0911101C020E0280F2D87442443946F
:1033D000512C4C0E5D1E480E511CE9E0E81BEB879A
:1033E000DC867FCF811154C080E2D82E9C8590323C
:1033F0000CF457CF8B81883809F040C083E093E00C
:10340000EB2DF0E03196E80DF91D980FA1E0B0E04A
:10341000AC0FBD1FA80FB11D2C9121938F5F891395
:10342000F5CFBB84E3E0BE124DC08A8581114AC04E
:103430009E012D5F3F4F41E0B201C3010E94C116C2
:10344000182F811125C09B81F201818198133CC006
:103450009C818281981338C0808182FF12C023949E
:10346000F2E02F1609F48ECF83E0281609F496CFE8
:1034700091E0291609F4CECE15E00AC082E094E06E
:10348000BFCFF4018387822D880F820D8F5F8083E9
:10349000812F2D960FB6F894DEBF0FBECDBFDF9102
:1034A000CF911F910F91FF90EF90DF90CF90BF9041
:1034B000AF909F908F907F906F905F904F903F90D4
:1034C0002F90089511E0E4CF17E0E2CFCF93CFB76C
:1034D000F8948091F201811127C0EFE7FAE084911E
:1034E000E1E6FAE09491E82FF0E0EE0FFF1FE858D4
:1034F000FA4FA591B491EC91E92321F461E08AE0BF
:103500000E94F90661E08AE00E9457078CB580614D
:103510008CBD8CB580648CBD61E08DE00E94570746
:1035200061E08BE00E9457078091F2018F5F8093EA
:10353000F201CFBFCF9108952091F6033091F703A8
:10354000C901079697FD079623E0959587952A95DB
:10355000E1F72091F4033091F503829FA001839F4E
:10356000500D929F500D112470E060E080910F0487
:10357000909110040C949E33FC0101900020E9F717
:103580003197AF01481B590BBC0180EF93E00C94BD
:1035900097050C94BC1ACF93DF930E94BC1AEC01E0
:1035A0008EE791E00E94BC1A8C0F9D1FDF91CF9196
:1035B00008950E948833CF93DF93FC01C081D181AD
:1035C000209761F08991882349F0082E000C990B0F
:1035D0000E948D33FE0131978083F4CFDF91CF912C
:1035E0000895FC0124813581232B39F421E0FB016E
:1035F0008081882349F020E007C0808191810E946A
:10360000A53321E0892BB9F7822F08950F931F93DB
:10361000CF93DF93EC0188819981009759F02A813B
:103620003B812617370730F081E0DF91CF911F9162
:103630000F9108958B016F5F7F4F0E94CB320097EF
:1036400059F0998388831B830A832C813D81232B26
:1036500059F7FC011082E8CF80E0E7CFEF92FF92AC
:103660000F931F93CF93DF936115710541F480E0B1
:10367000DF91CF911F910F91FF90EF900895411529
:103680005105B1F07B01EC010C811D81040F151F68
:10369000B8010E94061B882351F3288139818C814F
:1036A0009D81B701820F931F0E94AE331D830C834F
:1036B00081E0DECFFB0144815581608171810C94F2
:1036C0002E1BCF93DF93EC0188819981009711F035
:1036D0000E944232198218821D821C821B821A8229
:1036E000DF91CF910895CF92DF92EF92FF920F93E7
:1036F0001F93CF93DF93CDB7DEB729970FB6F8941A
:10370000DEBF0FBECDBF8C01862FF8011182108263
:10371000138212821582148240E19E012F5F3F4F77
:103720006901B90190E00E94E430F60101900020A7
:10373000E9F731977F01EC18FD08B701C8010E9435
:10374000061B811112C0C8010E94611B29960FB689
:10375000F894DEBF0FBECDBFDF91CF911F910F91C7
:10376000FF90EF90DF90CF900895F801F582E4820A
:10377000B601808191810E94AE33E8CFCF93DF9371
:10378000EC01FB0101900020E9F73197AF01461BE6
:10379000570B0E942E1B811103C0CE010E94611B9A
:1037A000CE01DF91CF910895CF93DF93EC01FB0120
:1037B00044815581608171810E942E1B811103C05B
:1037C000CE010E94611BCE01DF91CF910895EF924F
:1037D000FF920F931F93CF93DF93EC017B0119822C
:1037E00018821B821A821D821C82FB01019000201C
:1037F000E9F731978F01061B170BB8010E94061BD2
:10380000811109C0CE01DF91CF911F910F91FF90DF
:10381000EF900C94611B1D830C83B7018881998103
:10382000DF91CF911F910F91FF90EF900C94AE33E9
:10383000FC0180819181009711F00C94423208952F
:103840001F920F920FB60F9211242F933F934F9315
:103850005F936F937F938F939F93AF93BF93EF93F8
:10386000FF938091BF029091C002A091C102B091DC
:10387000C202892B8A2B8B2BD1F19091BA02E09155
:10388000BB02F091BC028081892780838091BF02B6
:103890009091C002A091C102B091C20218161906FF
:1038A0001A061B069CF48091BF029091C002A09161
:1038B000C102B091C2020197A109B1098093BF0270
:1038C0009093C002A093C102B093C202FF91EF9106
:1038D000BF91AF919F918F917F916F915F914F9128
:1038E0003F912F910F900FBE0F901F9018958091D0
:1038F00000010E942B07EACF1F920F920FB60F9282
:1039000011242F933F934F935F936F937F938F93E4
:103910009F93AF93BF93EF93FF938FEC92E00E943E
:103920001506FF91EF91BF91AF919F918F917F917C
:103930006F915F914F913F912F910F900FBE0F901C
:103940001F9018951F920F920FB60F9211242F936C
:103950008F939F93EF93FF93E091DF02F091E0024A
:103960008081E091E502F091E60282FD1BC090812A
:103970008091E8028F5F8F732091E902821741F0F6
:10398000E091E802F0E0E153FD4F958F8093E8026B
:10399000FF91EF919F918F912F910F900FBE0F90FC
:1039A0001F9018958081F4CF1F920F920FB60F923F
:1039B00011242F933F938F939F93AF93BF93809145
:1039C0009B0290919C02A0919D02B0919E02309129
:1039D0009A0223E0230F2D3758F50196A11DB11D42
:1039E00020939A0280939B0290939C02A0939D0245
:1039F000B0939E0280919F029091A002A091A1029B
:103A0000B091A2020196A11DB11D80939F029093D7
:103A1000A002A093A102B093A202BF91AF919F9187
:103A20008F913F912F910F900FBE0F901F9018957F
:103A300026E8230F0296A11DB11DD2CF1F920F922F
:103A40000FB60F9211242F933F934F935F936F9371
:103A50007F938F939F93AF93BF93EF93FF93809147
:103A6000B900887F803609F44AC0F0F5883209F43D
:103A7000A7C018F5803109F49BC0B8F4882309F475
:103A8000F9C0883009F494C0FF91EF91BF91AF91D4
:103A90009F918F917F916F915F914F913F912F9166
:103AA0000F900FBE0F901F901895883109F488C0B1
:103AB000803251F78093760214C0803409F49DC09F
:103AC00040F48033B9F38833F9F68093760285ECBD
:103AD000B0C0803509F485C0883509F496C08834B3
:103AE00099F60E944A0AD0CF883909F48CC038F57B
:103AF000883729F050F4883611F0803729F683E0B2
:103B00008093A9021092750257C0883809F47BC0CF
:103B1000803919F0803809F0B7CF80917502803272
:103B200008F071C0E091750281E08E0F80937502FC
:103B30008091BB00F0E0EB5AFD4F80833DC0803B9D
:103B400039F0E0F4803A09F479C0883A09F09CCF62
:103B500084E08093A9021092540210925302E091E3
:103B6000A502F091A60209958091530281110FC020
:103B700081E0809353021092330209C0803C09F423
:103B8000A6CF883C09F4A3CF883B09F07DCFE09114
:103B9000540281E08E0F80935402F0E0ED5CFD4F03
:103BA00080818093BB00909154028091530229C080
:103BB000809199028093BB0085EC8093BC0064CF18
:103BC0009091980280919702981758F5E091980289
:103BD00081E08E0F80939802F0E0E958FD4F8081DC
:103BE000E9CFE091980281E08E0F80939802809156
:103BF000BB00F0E0E958FD4F8083909198028091DE
:103C000097029817C8F285E8D8CFE091980281E032
:103C10008E0F809398028091BB00F0E0E958FD4F31
:103C200080838091A80281115CCF81E08093A702FC
:103C300084EA8093BC001092A90226CF85EC809381
:103C4000BC001092A90280917502803230F4E0919C
:103C50007502F0E0EB5AFD4F10826091750270E042
:103C6000E091A302F091A40285E592E009951092FB
:103C700075020ACF1092760234CF1092D2021092BF
:103C8000D10288EE93E0A0E0B0E08093D30290935D
:103C9000D402A093D502B093D6022EE131E0309346
:103CA000D0022093CF0225EC30E03093DC02209349
:103CB000DB0224EC30E03093DE022093DD0220ECC6
:103CC00030E03093E0022093DF0221EC30E03093CB
:103CD000E2022093E10222EC30E03093E4022093F0
:103CE000E30226EC30E03093E6022093E5021092E6
:103CF000E8021092E9021092EA021092EB0210928E
:103D0000E7031092E6038093E8039093E903A093FE
:103D1000EA03B093EB0380E391E09093E503809393
:103D2000E40388E791E090933104809330048AE0C3
:103D300080933E0489E080933F041092F303109235
:103D4000F20320E830E03093F5032093F40380E29F
:103D500090E09093F7038093F6033093F903209358
:103D6000F8039093FB038093FA03109206041092D9
:103D7000FD031092FC031092FF031092FE0391E0EA
:103D800090930504909304042FEF3FEF30930304C6
:103D900020930204309301042093000490930704BD
:103DA0001092080410920A04109209042CE431E0E5
:103DB0003093F1032093F00310920C0410920B0443
:103DC00024EE33E030930E0420930D04109210047F
:103DD00010920F048FEF8093140480931504809346
:103DE0001604809317048093180440E85AE166E0B3
:103DF00070E0409325045093260460932704709349
:103E0000280440EA56E861E070E0409329045093AA
:103E10002A0460932B0470932C0480E580932E0475
:103E200010922F0483E08093DB0324EF31E0309382
:103E3000DD032093DC039093DE031092DF031092E6
:103E4000E0031092E1031092E2031092E303109258
:103E50006E0310927203109271031092730382E446
:103E600091E090936D0380936C03E8E8F3E0108297
:103E7000148213821582369683E0E43CF807B9F782
:103E800084E091E09093CF038093CE0381E091E0B2
:103E90009093D1038093D00384E08093D20383E096
:103EA0008093D30388E091E09093CD038093CC037B
:103EB0008AE090E09093D5038093D40384EF91E05F
:103EC0009093D7038093D6031092DA031092D9030C
:103ED0001092C8031092C9031092CA031092CB0328
:103EE0001092D8030895CF93DF93CDB7DEB76297D2
:103EF0000FB6F894DEBF0FBECDBF789484B5826054
:103F000084BD84B5816084BD85B5826085BD85B57D
:103F1000816085BD80916E00816080936E001092FB
:103F20008100809181008260809381008091810076
:103F30008160809381008091800081608093800007
:103F40008091B10084608093B1008091B000816065
:103F50008093B00080917A00846080937A00809191
:103F60007A00826080937A0080917A0081608093E9
:103F70007A0080917A00806880937A001092C10064
:103F8000E091DF02F091E00282E08083E091DB02C9
:103F9000F091DC021082E091DD02F091DE028FEC04
:103FA00080831092E702E091E302F091E40286E060
:103FB0008083E091E102F091E20280818061808360
:103FC000E091E102F091E202808188608083E091DB
:103FD000E102F091E202808180688083E091E10259
:103FE000F091E20280818F7D808362E08091DB032B
:103FF0000E94570761E088E00E9457070E94661AF6
:1040000061E080913E040E94570761E080913E0488
:104010000E94F90680913F048F3F09F491C060E04F
:104020000E94570780913F040E94CD06892B09F01A
:1040300087C061E080913F040E94570760E0809153
:104040003F040E94F90683E090E00197F1F761E0F8
:1040500080913F040E94F90662E370E080E090E006
:104060000E94B00940E064E280E394E00E94A4165C
:1040700040E066E280E394E00E94A41646E268E431
:1040800080E394E00E94A41640E864E580E394E0B5
:104090000E94A41649EA66E580E394E00E94A41613
:1040A00043E068E580E394E00E94A41648EE6AE5E8
:1040B00080E394E00E94A41640E46AE280E394E086
:1040C0000E94A4164DE362E280E394E00E94A416ED
:1040D00068E280E394E00E948616982F93709330F4
:1040E00039F0482F436068E280E394E00E94A41610
:1040F00080910F0490911004892BC9F10E949C1AA1
:104100002091F6033091F7038091F4039091F50329
:10411000213231050CF084C0B9016052710977FF7A
:1041200002C06F5F7F4F759567958357910997FD23
:10413000019600E210E023E730E042EB55E083C057
:104140004FE062E080E394E00E94A41613E062E393
:1041500070E080E090E00E94B00962E080E394E0CB
:104160000E94861684FF7ECF115089F77BCF209165
:10417000F6033091F703C901079697FD0796B3E060
:1041800095958795BA95E1F72091F4033091F50361
:10419000AC01429FC001439F900D529F900D11248E
:1041A0000E94A6319093100480930F04892B09F08C
:1041B000A5CF412C512C3201439416E0212E81E0F1
:1041C0008093D8030E94E2090091C8031091C903AB
:1041D0002091CA033091CB03AB01BC01401B510BB2
:1041E000620B730B8091D4039091D503B0E0A0E0F3
:1041F00084179507A607B70708F0F7C210E080916B
:10420000D203181708F0F6C1E091CE03F091CF0366
:10421000E10FF11D62E080810E9457071F5FEFCF21
:10422000B9016054710977FF02C06F5F7F4F7595C8
:1042300067958255910997FD019600E410E022E50B
:1042400030E042E957E0959587950E949A128CE3F9
:104250008093120480910D0490910E04892B09F42F
:1042600005C18091F6039091F703809709F0FCC097
:104270008CE3809311041092AB021092AA02109268
:10428000CC021092CB021092A90281E08093A80286
:104290001092A70261E082E10E94F90661E083E1E9
:1042A0000E94F9068091B9008E7F8093B9008091B9
:1042B000B9008D7F8093B90088E48093B80085E4CD
:1042C0008093BC0085E995E09093A6028093A502B7
:1042D00086E995E09093A4028093A302809118044C
:1042E00087FD1EC061E00E94570761E080911804BD
:1042F0000E94F90661E070E080E090E00E94B00961
:1043000060E0809118040E94F9066AE070E080E0A5
:1043100090E00E94B00961E0809118040E94F906C3
:1043200080910D0490910E04892B09F42CC12091E9
:10433000250430912604409127045091280460E020
:1043400074E284EF90E00E945F312051310941090D
:10435000510956954795379527952093B80064E005
:104360008EEA95E00E94C4136091F603615080EFDD
:1043700093E00E94721464E08AEA95E00E94C413FC
:104380008091120460E1813009F064E180EF93E0F4
:104390000E94721464E086EA95E00E94C4138FE8DC
:1043A00080932D048091F4039091F503803891055A
:1043B00009F002C18091F6039091F70380349105D2
:1043C00009F00AC180911204813009F0F3C08FE92D
:1043D00080932D0412E16AED80EF93E00E94721445
:1043E000612F80EF93E00E94721461E880EF93E008
:1043F0000E94721460912D0480EF93E00E94721469
:1044000069ED80EF93E00E9472148091120462E2E1
:10441000813009F061EF80EF93E00E94721466E052
:1044200080EA95E00E94C41380910D0490910E04DF
:10443000892B09F4D5C02091290430912A04409198
:104440002B0450912C0460E074E284EF90E00E9411
:104450005F312051310941095109569547953795EA
:1044600027952093B800A5CE8DE303CF61E080911E
:1044700016040E94570761E0809117040E945707B5
:1044800080911604082E000C990BFC01EB58F54F97
:10449000E491F0E0EE0FFF1FE559F54F25913491BF
:1044A00030931E0420931D04FC01E95AF54FE4915A
:1044B000E093230480911704082E000C990BFC0153
:1044C000EB58F54FE491F0E0EE0FFF1FE559F54F83
:1044D000A591B491B0932004A0931F04FC01E95A64
:1044E000F54FE491E09324048C91E82BEC938091B8
:1044F0000B0490910C04892B19F00E94661AEECEE1
:1045000061E0809114040E94570761E080911504D6
:104510000E94570780911404082E000C990BFC018F
:10452000EB58F54FE491F0E0EE0FFF1FE559F54F22
:104530002591349130931A0420931904FC01E95A0F
:10454000F54FE491E093210480911504082E000CAE
:10455000990BFC01EB58F54FE491F0E0EE0FFF1FD3
:10456000E559F54FA591B491B0931C04A0931B0499
:10457000FC01E95AF54FE491E09322048C91E09517
:10458000E823EC93ABCE80910B0490910C04892B23
:1045900031F080912E0490912F040E94D414E09168
:1045A0001F04F09120049081809124048095892338
:1045B0008083D5CE8FEC0CCF8036910569F4809145
:1045C000F6039091F703409739F4809112048130FB
:1045D00029F480E180932D0412E0FDCE8FEAFACF1A
:1045E000E0911F04F0912004808190912404892B94
:1045F0008083DFCD912C8091D303981608F064C09E
:10460000092D10E0E091D003F091D103E00FF11FEC
:1046100061E080810E945707E091D003F091D103BF
:10462000E00FF11F60E080810E94F906D301C20112
:10463000092C04C0880F991FAA1FBB1F0A94D2F728
:104640005C017C01E094F094812C8091D203881667
:1046500020F5C82CD12CE091CE03F091CF03EC0DC6
:10466000FD1D80810E94CD06F6013496892B61F4F0
:10467000EE0FFF1FE459FC4F808191818A299B290D
:10468000918380838394E1CFEE0FFF1FE459FC4FA9
:10469000808191818E219F21F3CFE091D003F09111
:1046A000D103E00FF11F61E080810E94F906809143
:1046B000D0039091D103080F191F60E0F8018081A9
:1046C0000E945707939497CF0CE613E088EA93E093
:1046D0007801F701278D30A1232B31F4148E2FEFB1
:1046E0003FEF368F258F11A236E0E30EF11C8E15B9
:1046F0009F0579F7B12C8091D203B81608F053C00A
:10470000A12CCB2CD12CCC0CDD1CA6014C585C4F21
:104710006A012091D303A21608F043C0F60160811C
:1047200071810A2C02C0769567950A94E2F7B29ED1
:10473000900111242A0D311DECE6F3E080E0458D57
:10474000568D2417350711F40C94D2308F5F3696AE
:104750008A30A9F760FF23C0ECE6F3E090E080E048
:10476000448D411117C0E091CC03F091CD03E20FCD
:10477000F31F4081289EF001299EF00D1124E45979
:10478000FC4F448F368F258F10A2178E61E00E9458
:10479000EE0905C0019636968A30910509F7A39473
:1047A000B8CFB394A8CFD12CF80181A18111D82E14
:1047B0000A5F1F4F0E151F05B9F70E94E2096093AB
:1047C000C8037093C9038093CA039093CB03DD2081
:1047D00061F080918D03882341F080918B0390914B
:1047E0008C0310918803019719F01092D80310E000
:1047F0000E94E2096B017C018090E0039090E1034C
:10480000A090E203B090E3030E94E20968157905E5
:104810008A059B0518F18091DB030E94CD0620914B
:10482000DE0328171906D1F00E94E2092091DC036B
:104830003091DD03620F731F811D911D6093E003B2
:104840007093E1038093E2039093E3038091DE038E
:1048500091E089278093DE039093DF038091DE034C
:10486000882309F445C08091DF03882309F440C000
:104870008091B6029091B7021092DF032091B802A6
:104880003091B9022F5F3F4F3093B9022093B802A5
:1048900001969093B7028093B60244E650E060E040
:1048A00070E088EE93E00E9493070E949C1A8AE0D1
:1048B00090E09093FD038093FC038FE090E0909351
:1048C000FF038093FE0381E090E0909303048093C4
:1048D0000204909301048093000482E08093040416
:1048E0008093050485E891E00E94CB1A0E94D714BA
:1048F0008091B6029091B70202975CF10E949C1AD7
:1049000088E290E09093FD038093FC038AE090E0BE
:104910009093FF038093FE0381E090E09093030463
:1049200080930204909301048093000483E08093B9
:1049300004048093050480E991E00E94CB1A0E9450
:10494000D7141092B7021092B6021092B9021092C8
:10495000B80281E090E0113361F082E090E0123320
:1049600041F083E090E0133321F0143331F484E01C
:1049700090E09093B5028093B4028091B802909138
:10498000B902009709F014C11092B5021092B40256
:104990000091B8021091B9020115110509F0C5C3C3
:1049A0001092B5021092B4020091B8021091B902AF
:1049B0000115110509F076C61092B5021092B402E5
:1049C0000091B8021091B9020115110511F00C9473
:1049D000102E1092B5021092B4020091AC02109108
:1049E000AD020130110509F0D6C080E394E00E94C9
:1049F0008718882309F4CFC080E394E00E94AC13A9
:104A0000882309F4C8C060E871E0CE010D960E94C9
:104A1000E71B63E3C62E64E0D62EB12C23E051E8F9
:104A2000E52E51E0F52EB21204C040E8E42E41E03C
:104A3000F42EF60161916F01CE0101960E94731B65
:104A4000F6013197808163E871E0803110F060E811
:104A500071E0CE0107960E94E71BBE016F5F7F4F9A
:104A6000CE0107960E94D41BB7010E94BE1BBC0159
:104A7000CE010D960E945A1BCE0107960E94181C6B
:104A8000CE0101960E94181CB394F4E0BF12C6CF69
:104A9000CE010D960E94DB1A6AED71E0CE010D96F3
:104AA0000E94F11A882309F472C06AEF70E080E076
:104AB00090E00E94B00942E350E060E070E084EFD3
:104AC00091E00E94930764E670E080E090E00E942D
:104AD000B00944E650E060E070E088EE93E00E94A8
:104AE00093078AE0C82ED12C92E1A92EB12CEE2496
:104AF000E394F12C32E0932E0E949C1AC80186594F
:104B000091099093FD038093FC03B092FF03A09260
:104B1000FE03F0920304E0920204F0920104E0929A
:104B20000004909204049092050486EE91E00E94A5
:104B3000C91A1093FD030093FC03B092FF03A092E7
:104B4000FE03F0920304E0920204F0920104E0926A
:104B50000004909204049092050486EE91E00E9475
:104B6000C91A0E94D71448EE53E060E070E0C60115
:104B70000E9493070F5F1F4F2AE0C20ED11C073916
:104B8000110509F0B9CF1092AD021092AC02CE011E
:104B90000D960E94181C80E090E0892B09F40FCB41
:104BA0000E940106882309F408CB0E94000005CB6F
:104BB000019709F0EDCE0091B4021091B5020130D9
:104BC000110509F0E5CE0E949C1A8AE090E09093CE
:104BD000FD038093FC039093FF038093FE031093E7
:104BE000030400930204109301040093000482E084
:104BF000809304048093050484E991E00E94CB1A19
:104C00000E94D7148091AE029091AF02A091B002A1
:104C1000B091B102A7019601281B390B4A0B5B0B1F
:104C2000DA01C901883C9105A105B105D4F0809154
:104C3000B2029091B302892BA1F440E951E060E007
:104C400070E088EE93E00E949307C092AE02D0928B
:104C5000AF02E092B002F092B1021093B30200935F
:104C6000B2028091AE029091AF02A091B002B091D9
:104C7000B102A7019601281B390B4A0B5B0BDA0125
:104C8000C901883C9105A105B105E4F08091B2020B
:104C90009091B3020197B1F440E951E060E070E017
:104CA00084EF91E00E949307C092AE02D092AF02CF
:104CB000E092B002F092B10282E090E09093B302F1
:104CC0008093B2028091AE029091AF02A091B002A7
:104CD000B091B102A7019601281B390B4A0B5B0B5F
:104CE000DA01C90184369105A105B105E4F080918E
:104CF000B2029091B3020297B1F440E951E060E052
:104D000070E088EE93E00E949307C092AE02D092CA
:104D1000AF02E092B002F092B10283E090E0909393
:104D2000B3028093B2028091AE029091AF02A09143
:104D3000B002B091B102A7019601281B390B4A0BB2
:104D40005B0BDA01C901883C9105A105B105E4F0CE
:104D50008091B2029091B3020397B1F440E951E01F
:104D600060E070E084EF91E00E949307C092AE0291
:104D7000D092AF02E092B002F092B10284E090E0F3
:104D80009093B3028093B2028091AE029091AF02F1
:104D9000A091B002B091B102A7019601281B390B76
:104DA0004A0B5B0BDA01C901883C9105A105B105ED
:104DB000E4F08091B2029091B3020497B1F440E91B
:104DC00051E060E070E088EE93E00E949307C092AB
:104DD000AE02D092AF02E092B002F092B10285E052
:104DE00090E09093B3028093B2028091AE029091D2
:104DF000AF02A091B002B091B102A7019601281BA9
:104E0000390B4A0B5B0BDA01C90184369105A10508
:104E1000B105E4F08091B2029091B3020597B1F42C
:104E200040E951E060E070E088E592E00E9493077D
:104E3000C092AE02D092AF02E092B002F092B10204
:104E400086E090E09093B3028093B2028091AE022C
:104E50009091AF02A091B002B091B102A70196016A
:104E6000281B390B4A0B5B0BDA01C901843691050B
:104E7000A105B105E4F08091B2029091B3020697CA
:104E8000B1F440E951E060E070E08CEB92E00E9408
:104E90009307C092AE02D092AF02E092B002F092BD
:104EA000B10287E090E09093B3028093B2028091C8
:104EB000AE029091AF02A091B002B091B102A701F1
:104EC0009601281B390B4A0B5B0BDA01C901883CA0
:104ED0009105A105B105D4F08091B2029091B30281
:104EE0000797A1F440E951E060E070E080E293E0D0
:104EF0000E949307C092AE02D092AF02E092B0023D
:104F0000F092B1021092B3021092B20280E394E0E8
:104F10000E948718882309F43ECE80E394E00E9423
:104F2000AC13882309F437CE60E871E0CE010D960A
:104F30000E94E71B63E3862E64E0962E312C33E05B
:104F400051E8A52E51E0B52E331204C040E8A42E3E
:104F500041E0B42EF40161914F01CE0101960E940F
:104F6000731BF4013197808163E871E0803110F0A8
:104F700060E871E0CE0107960E94E71BBE016F5FFB
:104F80007F4FCE0107960E94D41BB5010E94BE1B25
:104F9000BC01CE010D960E945A1BCE0107960E94BD
:104FA000181CCE0101960E94181C3394F4E03F12A5
:104FB000C6CFCE010D960E94DB1A6EE971E0CE01DC
:104FC0000D960E94F11A882309F4A4C088E00E947B
:104FD0002B076AEF70E080E090E00E94B00942E3A6
:104FE00050E060E070E084EF91E00E94930764E697
:104FF00070E080E090E00E94B00944E650E060E09C
:1050000070E088EE93E00E9493070E949C1A109231
:10501000FD031092FC038AE090E09093FF038093DD
:10502000FE0381E090E09093030480930204909348
:1050300001048093000483E08093040480930504BA
:105040008AEA91E00E94CB1A0E94D71460ED77E0C3
:1050500080E090E00E94B00992E1892E912CAA2470
:10506000A394B12C32E0332E0E949C1AC8018659B9
:1050700091099093FD038093FC039092FF0380922B
:10508000FE03B0920304A0920204B0920104A09225
:105090000004309204043092050482EB91E00E94F7
:1050A000C91A48EE53E060E070E084E690E00E94A8
:1050B00093071093FD030093FC039092FF038092EB
:1050C000FE03B0920304A0920204B0920104A092E5
:1050D0000004309204043092050482EB91E00E94B7
:1050E000C91A0E94D71448EE53E060E070E0C8018E
:1050F0008C599F4F0E9493070F5F1F4F073911056F
:1051000009F0B2CFB092AD02A092AC021092B502FB
:105110001092B40280E394E00E9426180E94811845
:10512000CE010D960E94181C33CC0130110509F0F8
:105130003BCC8091B4029091B502029709F034CC37
:105140000E949C1A8AE090E09093FD038093FC03F8
:105150009093FF038093FE031093030400930204D3
:10516000109301040093000482E080930404809370
:10517000050484E991E00E94CB1A0E94D714809123
:10518000AE029091AF02A091B002B091B102A7011E
:105190009601281B390B4A0B5B0BDA01C901883CCD
:1051A0009105A105B105D4F08091B2029091B302AE
:1051B000892BA1F440E951E060E070E080E496E0E2
:1051C0000E949307C092AE02D092AF02E092B0026A
:1051D000F092B1021093B3020093B2028091AE023A
:1051E0009091AF02A091B002B091B102A7019601D7
:1051F000281B390B4A0B5B0BDA01C9018436910578
:10520000A105B105E4F08091B2029091B30201973B
:10521000B1F440E951E060E070E080ED97E00E9479
:105220009307C092AE02D092AF02E092B002F09229
:10523000B10282E090E09093B3028093B202809139
:10524000AE029091AF02A091B002B091B102A7015D
:105250009601281B390B4A0B5B0BDA01C901843616
:105260009105A105B105E4F08091B2029091B302DD
:105270000297B1F440E951E060E070E084EA96E022
:105280000E949307C092AE02D092AF02E092B002A9
:10529000F092B10283E090E09093B3028093B20267
:1052A0008091AE029091AF02A091B002B091B10294
:1052B000A7019601281B390B4A0B5B0BDA01C901C8
:1052C00084369105A105B105E4F08091B202909178
:1052D000B3020397B1F440E951E060E070E080ED83
:1052E00097E00E949307C092AE02D092AF02E09284
:1052F000B002F092B10284E090E09093B302809308
:10530000B2028091AE029091AF02A091B002B09132
:10531000B102A7019601281B390B4A0B5B0BDA017E
:10532000C90184369105A105B105E4F08091B2026E
:105330009091B3020497B1F440E951E060E070E06D
:1053400084EA96E00E949307C092AE02D092AF0228
:10535000E092B002F092B10285E090E09093B30247
:105360008093B2028091AE029091AF02A091B00200
:10537000B091B102A7019601281B390B4A0B5B0BB8
:10538000DA01C90184369105A105B105E4F08091E7
:10539000B2029091B3020597B1F440E951E060E0A8
:1053A00070E080ED97E00E949307C092AE02D09229
:1053B000AF02E092B002F092B10286E090E09093EA
:1053C000B3028093B2028091AE029091AF02A0919D
:1053D000B002B091B102A7019601281B390B4A0B0C
:1053E0005B0BDA01C90184369105A105B105E4F032
:1053F0008091B2029091B3020697B1F440E951E076
:1054000060E070E080E496E00E949307C092AE02F4
:10541000D092AF02E092B002F092B10287E090E049
:105420009093B3028093B2028091AE029091AF024A
:10543000A091B002B091B102A7019601281B390BCF
:105440004A0B5B0BDA01C901883C9105A105B10546
:10545000D4F08091B2029091B3020797A1F440E991
:1054600051E060E070E084E398E00E949307C0920E
:10547000AE02D092AF02E092B002F092B10210926E
:10548000B3021092B20280E394E00E94871888234E
:1054900009F481CB80E394E00E94AC13882309F4E3
:1054A0007ACB60E871E0CE010D960E94E71B83E3A2
:1054B000882E84E0982E312C33E0B1E8AB2EB1E099
:1054C000BB2E331204C0A0E8AA2EA1E0BA2EF4012C
:1054D00061914F01CE0101960E94731BF401319737
:1054E000808163E871E0803110F060E871E0CE0106
:1054F00007960E94E71BBE016F5F7F4FCE010796A4
:105500000E94D41BB5010E94BE1BBC01CE010D96AA
:105510000E945A1BCE0107960E94181CCE010196CC
:105520000E94181C3394F4E03F12C6CFCE010D96B2
:105530000E94DB1A6EE971E0CE010D960E94F11A0D
:10554000882309F4A4C088E00E942B076AEF70E06A
:1055500080E090E00E94B00942E350E060E070E03B
:1055600084EF91E00E94930764E670E080E090E0B1
:105570000E94B00944E650E060E070E088EE93E0FD
:105580000E9493070E949C1A1092FD031092FC0344
:105590008AE090E09093FF038093FE0381E090E027
:1055A0009093030480930204909301048093000479
:1055B00083E080930404809305048AEA91E00E94CA
:1055C000CB1A0E94D71460ED77E080E090E00E9453
:1055D000B00972E1872E912CAA24A394B12CF2E099
:1055E0003F2E0E949C1AC801865991099093FD0391
:1055F0008093FC039092FF038092FE03B092030419
:10560000A0920204B0920104A0920004309204041B
:10561000309205048DEB91E00E94C91A48EE53E0E8
:1056200060E070E084E690E00E9493071093FD0331
:105630000093FC039092FF038092FE03B092030458
:10564000A0920204B0920104A092000430920404DB
:10565000309205048DEB91E00E94C91A0E94D71484
:1056600048EE53E060E070E0C8018C599F4F0E9403
:1056700093070F5F1F4F0739110509F0B2CFB092A2
:10568000AD02A092AC021092B5021092B40280E377
:1056900094E00E9426180E948118CE010D960E9467
:1056A000181C82C90130110509F08AC98091B40221
:1056B0009091B502039709F083C90E949C1A8AE071
:1056C00090E09093FD038093FC039093FF038093FD
:1056D000FE0310930304009302041093010400934B
:1056E000000482E0809304048093050484E991E03F
:1056F0000E94CB1A0E94D7148091AE029091AF0203
:10570000A091B002B091B102A7019601281B390BFC
:105710004A0B5B0BDA01C9018C329140A105B1053E
:10572000D4F08091B2029091B302892BA1F440E9A8
:1057300051E060E070E088E592E00E949307C0923B
:10574000AE02D092AF02E092B002F092B10210939A
:10575000B3020093B2028091AE029091AF02A09189
:10576000B002B091B102A7019601281B390B4A0B78
:105770005B0BDA01C90184369105A105B105E4F09E
:105780008091B2029091B3020197B1F440E951E0E7
:1057900060E070E084E690E00E949307C092AE0261
:1057A000D092AF02E092B002F092B10282E090E0BB
:1057B0009093B3028093B2028091AE029091AF02B7
:1057C000A091B002B091B102A7019601281B390B3C
:1057D0004A0B5B0BDA01C9018C329140A105B1057E
:1057E000E4F08091B2029091B3020297B1F440E9E3
:1057F00051E060E070E088EC90E00E949307C09276
:10580000AE02D092AF02E092B002F092B10283E019
:1058100090E09093B3028093B2028091AE02909197
:10582000AF02A091B002B091B102A7019601281B6E
:10583000390B4A0B5B0BDA01C90184369105A105CE
:10584000B105E4F08091B2029091B3020397B1F4F4
:1058500040E951E060E070E08CE291E00E94930743
:10586000C092AE02D092AF02E092B002F092B102CA
:1058700084E090E09093B3028093B2028091AE02F4
:105880009091AF02A091B002B091B102A701960130
:10589000281B390B4A0B5B0BDA01C901843F91408D
:1058A000A105B105E4F08091B2029091B302049792
:1058B000B1F440E951E060E070E088E592E00E94D8
:1058C0009307C092AE02D092AF02E092B002F09283
:1058D000B10285E090E09093B3028093B202809190
:1058E000AE029091AF02A091B002B091B102A701B7
:1058F0009601281B390B4A0B5B0BDA01C901843670
:105900009105A105B105E4F08091B2029091B30236
:105910000597B1F440E951E060E070E080E991E082
:105920000E949307C092AE02D092AF02E092B00202
:10593000F092B10286E090E09093B3028093B202BD
:105940008091AE029091AF02A091B002B091B102ED
:10595000A7019601281B390B4A0B5B0BDA01C90121
:1059600084369105A105B105E4F08091B2029091D1
:10597000B3020697B1F440E951E060E070E084EFD3
:1059800091E00E949307C092AE02D092AF02E092E3
:10599000B002F092B10287E090E09093B30280935E
:1059A000B2028091AE029091AF02A091B002B0918C
:1059B000B102A7019601281B390B4A0B5B0BDA01D8
:1059C000C901883C9105A105B105D4F08091B202CE
:1059D0009091B3020797A1F440E951E060E070E0D4
:1059E00088E592E00E949307C092AE02D092AF0287
:1059F000E092B002F092B1021092B3021092B202A1
:105A000080E394E00E948718882309F4C4C880E3E7
:105A100094E00E94AC13882309F4BDC860E871E0EB
:105A2000CE010D960E94E71B63E3862E64E0962E5E
:105A3000312C33E051E8A52E51E0B52E331204C0CD
:105A400040E8A42E41E0B42EF40161914F01CE0153
:105A500001960E94731BF4013197808163E871E025
:105A6000803110F060E871E0CE0107960E94E71BDC
:105A7000BE016F5F7F4FCE0107960E94D41BB50118
:105A80000E94BE1BBC01CE010D960E945A1BCE0186
:105A900007960E94181CCE0101960E94181C339490
:105AA000F4E03F12C6CFCE010D960E94DB1A6EE9DC
:105AB00071E0CE010D960E94F11A882309F4A4C06A
:105AC00088E00E942B076AEF70E080E090E00E947F
:105AD000B00942E350E060E070E084EF91E00E94A2
