:100000000C9462000C948A000C948A000C948A0070
:100010000C948A000C948A000C948A000C948A0038
:100020000C948A000C948A000C948A000C948A0028
:100030000C948A000C948A000C948A000C948A0018
:100040000C94F1010C948A000C94BF010C9499015A
:100050000C948A000C948A000C948A000C948A00F8
:100060000C948A000C948A000000000025002800EF
:100070002B0000000000240027002A0000000000E0
:1000800023002600290004040404040404040202DA
:100090000202020203030303030301020408102007
:1000A0004080010204081020010204081020000012
:1000B0000008000201000003040700000000000027
:1000C00000003B0211241FBECFEFD8E0DEBFCDBF42
:1000D00011E0A0E0B1E0EEEAF7E002C005900D9279
:1000E000A032B107D9F721E0A0E2B1E001C01D9232
:1000F000AF3CB207E1F710E0C2E6D0E004C02197C0
:10010000FE010E94CF03C136D107C9F70E947702D2
:100110000C94D5030C940000AF92BF92CF92DF9263
:10012000EF92FF920F931F93CF93DF936C017B01AC
:100130008B01040F151FEB015E01AE18BF08C0173D
:10014000D10759F06991D601ED91FC910190F081B0
:10015000E02DC6010995892B79F7C501DF91CF9173
:100160001F910F91FF90EF90DF90CF90BF90AF90D5
:100170000895FC01538D448D252F30E0842F90E0AD
:10018000821B930B541710F0CF9608950197089592
:10019000FC01918D828D981761F0A28DAE0FBF2F5B
:1001A000B11D5D968C91928D9F5F9F73928F90E0B1
:1001B00008958FEF9FEF0895FC01918D828D981720
:1001C00031F0828DE80FF11D858D90E008958FEF5D
:1001D0009FEF0895FC01918D228D892F90E0805C26
:1001E0009F4F821B91098F739927089589E291E0AF
:1001F0000E94EA0021E0892B09F420E0822F089573
:1002000080E090E0892B29F00E94F60081110C9487
:1002100000000895FC01A48DA80FB92FB11DA35AA9
:10022000BF4F2C91848D90E001968F739927848F16
:10023000A689B7892C93A089B1898C918370806439
:100240008C93938D848D981306C00288F389E02DDA
:1002500080818F7D80830895EF92FF920F931F938B
:10026000CF93DF93EC0181E0888F9B8D8C8D981369
:100270001AC0E889F989808185FF15C09FB7F89475
:10028000EE89FF896083E889F989808183708064C1
:1002900080839FBF81E090E0DF91CF911F910F910C
:1002A000FF90EF900895F62E0B8D10E00F5F1F4F1B
:1002B0000F731127E02E8C8D8E110CC00FB607FC2A
:1002C000FACFE889F989808185FFF5CFCE010E94B8
:1002D0000A01F1CFEB8DEC0FFD2FF11DE35AFF4F1B
:1002E000F0829FB7F8940B8FEA89FB898081806246
:1002F000CFCFCF93DF93EC01888D8823B9F0AA8903
:10030000BB89E889F9898C9185FD03C0808186FDD0
:100310000DC00FB607FCF7CF8C9185FFF2CF80811F
:1003200085FFEDCFCE010E940A01E9CFDF91CF9189
:1003300008951F920F920FB60F9211242F933F939F
:100340004F935F936F937F938F939F93AF93BF93DD
:10035000EF93FF9389E291E00E940A01FF91EF91F0
:10036000BF91AF919F918F917F916F915F914F91CD
:100370003F912F910F900FBE0F901F9018951F92D5
:100380000F920FB60F9211242F938F939F93EF9399
:10039000FF93E0913901F0913A018081E0913F01B2
:1003A000F091400182FD1BC09081809142018F5FDE
:1003B0008F7320914301821741F0E0914201F0E0F8
:1003C000E75DFE4F958F80934201FF91EF919F91E2
:1003D0008F912F910F900FBE0F901F9018958081D5
:1003E000F4CF1F920F920FB60F9211242F933F93C9
:1003F0008F939F93AF93BF93809125019091260196
:10040000A0912701B09128013091240123E0230F0E
:100410002D3758F50196A11DB11D2093240180931D
:10042000250190932601A0932701B0932801809184
:10043000200190912101A0912201B0912301019608
:10044000A11DB11D8093200190932101A093220151
:10045000B0932301BF91AF919F918F913F912F91C5
:100460000F900FBE0F901F90189526E8230F02964D
:10047000A11DB11DD2CFE9E2F1E01382128288EE14
:1004800093E0A0E0B0E084839583A683B78384E003
:1004900091E09183808385EC90E09587848784EC5C
:1004A00090E09787868780EC90E0918B808B81EC41
:1004B00090E0938B828B82EC90E0958B848B86EC22
:1004C00090E0978B868B118E128E138E148EE6EC35
:1004D000F1E084E0808384EF91E09283818381E086
:1004E0008383148215821682178210860895789469
:1004F00084B5826084BD84B5816084BD85B5826029
:1005000085BD85B5816085BD80916E0081608093D9
:100510006E00109281008091810082608093810042
:100520008091810081608093810080918000816052
:10053000809380008091B10084608093B1008091AD
:10054000B00081608093B00080917A0084608093D5
:100550007A0080917A00826080937A0080917A009C
:10056000816080937A0080917A00806880937A001D
:100570001092C100E0913901F0913A0182E080834C
:10058000E0913501F09136011082E0913701F09150
:1005900038018FEC808310924101E0913D01F09190
:1005A0003E0186E08083E0913B01F0913C01808137
:1005B00080618083E0913B01F0913C018081886003
:1005C0008083E0913B01F0913C01808180688083D1
:1005D000E0913B01F0913C0180818F7D808380918F
:1005E000C60190E0FC01E656FF4F24918A579F4FC9
:1005F000FC0184918823C1F090E0880F991FFC01D1
:10060000EE58FF4FC591D491FC01E859FF4FA591D9
:10061000B4919FB7F8943881822F80958323888383
:10062000EC91E22BEC939FBF11E0C0E0D0E001E041
:100630004091CB015091CC016091CD017091CE01E0
:100640002FB7F8948091250190912601A091270160
:10065000B09128012FBF84179507A607B70708F4A4
:1006600056C08091C60190E0FC01E255FF4F2491F5
:10067000FC01E656FF4F3491FC01EA57FF4FE4912D
:1006800090E080E0EE23E1F0222359F0233009F4DA
:1006900064C008F057C0213009F465C0223009F465
:1006A00066C0F0E0EE0FFF1FE458FF4FA591B49134
:1006B000EC913E2341E020E009F440E0842F922FAA
:1006C0002091C9012817190611F12FB7F8948091CC
:1006D000250190912601A0912701B09128012FBFFB
:1006E0002091C7013091C801820F931FA11DB11D38
:1006F0008093CB019093CC01A093CD01B093CE0118
:100700008091C90181278093C9010093CA0180911A
:10071000C901811139C08091CA018823A9F11092C1
:10072000CA0149E050E062E171E089E291E00E9493
:100730008C0042E050E06CE171E089E291E00E94BF
:100740008C0076CF2730B1F02830D1F0243009F07A
:10075000A8CF809180008F7D03C0809180008F772B
:10076000809380009ECF84B58F7784BD9ACF84B567
:100770008F7DFBCF8091B0008F778093B00091CFB9
:100780008091B0008F7DF9CF209709F451CF0E945E
:10079000F600882309F44CCF0E94000049CFEE0FE9
:0E07A000FF1F0590F491E02D0994F894FFCF0F
:1007AE00000000002C018C00B9007901EA00C8009D
:1007BE00DC0048454E5348494E2121000D0A0000E9
:107E0000112484B714BE81FFF0D085E080938100F7
:107E100082E08093C00088E18093C10086E0809377
:107E2000C20080E18093C4008EE0C9D0259A86E02C
:107E300020E33CEF91E0309385002093840096BBD3
:107E4000B09BFECF1D9AA8958150A9F7CC24DD24C4
:107E500088248394B5E0AB2EA1E19A2EF3E0BF2EE7
:107E6000A2D0813461F49FD0082FAFD0023811F036
:107E7000013811F484E001C083E08DD089C08234E0
:107E800011F484E103C0853419F485E0A6D080C0E4
:107E9000853579F488D0E82EFF2485D0082F10E0AE
:107EA000102F00270E291F29000F111F8ED06801E7
:107EB0006FC0863521F484E090D080E0DECF843638
:107EC00009F040C070D06FD0082F6DD080E0C81688
:107ED00080E7D80618F4F601B7BEE895C0E0D1E017
:107EE00062D089930C17E1F7F0E0CF16F0E7DF06D8
:107EF00018F0F601B7BEE89568D007B600FCFDCFD4
:107F0000A601A0E0B1E02C9130E011968C91119780
:107F100090E0982F8827822B932B1296FA010C0160
:107F200087BEE89511244E5F5F4FF1E0A038BF0790
:107F300051F7F601A7BEE89507B600FCFDCF97BE46
:107F4000E89526C08437B1F42ED02DD0F82E2BD052
:107F50003CD0F601EF2C8F010F5F1F4F84911BD097
:107F6000EA94F801C1F70894C11CD11CFA94CF0C13
:107F7000D11C0EC0853739F428D08EE10CD085E9AC
:107F80000AD08FE07ACF813511F488E018D01DD067
:107F900080E101D065CF982F8091C00085FFFCCF94
:107FA0009093C60008958091C00087FFFCCF809118
:107FB000C00084FD01C0A8958091C6000895E0E648
:107FC000F0E098E1908380830895EDDF803219F02E
:107FD00088E0F5DFFFCF84E1DECF1F93182FE3DFCA
:107FE0001150E9F7F2DF1F91089580E0E8DFEE27F6
:047FF000FF270994CA
:027FFE00040479
:0400000300007E007B
:00000001FF
