:100000000C9476000C949E000C949E000C949E0020
:100010000C949E000C949E000C949E000C949E00E8
:100020000C949E000C949E000C949E000C949E00D8
:100030000C949E000C949E000C949E000C949E00C8
:100040000C9475070C949E000C9443070C941D07A8
:100050000C949E000C949E000C949E000C949E00A8
:100060000C949E000C949E000000000025002800C7
:100070002B0000000000240027002A0000000000E0
:1000800023002600290004040404040404040202DA
:100090000202020203030303030301020408102007
:1000A0004080010204081020010204081020000012
:1000B0000008000201000003040700000000000027
:1000C0000000596F757220746167206973206E6F2C
:1000D00074206F662074797065204D494641524501
:1000E00020436C61737369632E00BF0711241FBE28
:1000F000CFEFD8E0DEBFCDBF22E0A2E9B1E001C082
:100100001D92AD34B207E1F711E0A0E0B1E0E2ECFE
:10011000F9E102C005900D92A239B107D9F710E0BC
:10012000C6E7D0E004C02197FE010E94D60AC53779
:10013000D107C9F70E94F6070C94DF0C0C9400005D
:100140008CBD9DBD0895AF92BF92CF92DF92EF928A
:10015000FF920F931F93CF93DF936C017B018B0171
:10016000040F151FEB015E01AE18BF08C017D107C1
:1001700059F06991D601ED91FC910190F081E02D4B
:10018000C6010995892B79F7C501DF91CF911F91A0
:100190000F91FF90EF90DF90CF90BF90AF900895B8
:1001A000FC01538D448D252F30E0842F90E0821B7D
:1001B000930B541710F0CF96089501970895FC0102
:1001C000918D828D981761F0A28DAE0FBF2FB11D5A
:1001D0005D968C91928D9F5F9F73928F90E00895B2
:1001E0008FEF9FEF0895FC01918D828D981731F06C
:1001F000828DE80FF11D858D90E008958FEF9FEFC0
:100200000895FC01918D228D892F90E0805C9F4F95
:10021000821B91098F73992708958CE991E00E94C0
:10022000010121E0892B09F420E0822F089580E06C
:1002300090E0892B29F00E940D0181110C9400009F
:100240000895FC01A48DA80FB92FB11DA35ABF4F6B
:100250002C91848D90E001968F739927848FA689C5
:10026000B7892C93A089B1898C91837080648C9319
:10027000938D848D981306C00288F389E02D8081C8
:100280008F7D80830895EF92FF920F931F93CF93FA
:10029000DF93EC0181E0888F9B8D8C8D98131AC0C1
:1002A000E889F989808185FF15C09FB7F894EE89A8
:1002B000FF896083E889F989808183708064808305
:1002C0009FBF81E090E0DF91CF911F910F91FF9050
:1002D000EF900895F62E0B8D10E00F5F1F4F0F73F8
:1002E0001127E02E8C8D8E110CC00FB607FCFACFB3
:1002F000E889F989808185FFF5CFCE010E9421012F
:10030000F1CFEB8DEC0FFD2FF11DE35AFF4FF08283
:100310009FB7F8940B8FEA89FB8980818062CFCFE9
:10032000CF93DF93EC01888D8823B9F0AA89BB892C
:10033000E889F9898C9185FD03C0808186FD0DC017
:100340000FB607FCF7CF8C9185FFF2CF808185FF38
:10035000EDCFCE010E942101E9CFDF91CF91089529
:10036000833081F028F4813099F08230A9F008952B
:100370008730A9F08830C9F08430B1F480918000D2
:100380008F7D03C0809180008F77809380000895D7
:1003900084B58F7784BD089584B58F7DFBCF809120
:1003A000B0008F778093B00008958091B0008F7D6A
:1003B000F9CF1F93CF93DF93282F30E0F901E25557
:1003C000FF4F8491F901E656FF4FD491F901EA57A6
:1003D000FF4FC491CC23A9F0162F81110E94B001C8
:1003E000EC2FF0E0EE0FFF1FE859FF4FA591B491FD
:1003F0008FB7F894EC91111108C0D095DE23DC93EF
:100400008FBFDF91CF911F910895DE2BF8CFCF934F
:10041000DF9390E0FC01E656FF4F24918A579F4FEF
:10042000FC0184918823D1F090E0880F991FFC0192
:10043000EE58FF4FA591B491FC01E859FF4FC591CB
:10044000D49161110EC09FB7F8948C91E22FE09582
:100450008E238C932881E223E8839FBFDF91CF9185
:1004600008958FB7F894EC91E22BEC938FBFF6CF01
:100470003FB7F8948091970190919801A0919901CC
:10048000B0919A0126B5A89B05C02F3F19F001969F
:10049000A11DB11D3FBFBA2FA92F982F8827BC01DE
:1004A000CD01620F711D811D911D42E0660F771F06
:1004B000881F991F4A95D1F708958F929F92AF9206
:1004C000BF92CF92DF92EF92FF920E9438024B01CF
:1004D0005C0182E3C82ED12CE12CF12C0E94380261
:1004E000681979098A099B09683E7340810591055D
:1004F000A8F321E0C21AD108E108F10888EE880EBD
:1005000083E0981EA11CB11CC114D104E104F104C4
:1005100029F7FF90EF90DF90CF90BF90AF909F9022
:100520008F900895BC016E5F7F4FDC01ED91FC91CF
:100530000190F081E02D40E0099591E0811190E07B
:10054000892F089508958EBD00000DB407FEFDCFDC
:100550008EB50895DF92EF92FF920F931F93CF9382
:10056000DF937C01062FD42E152F83E590E00E94A7
:10057000A00060E0F70186850E94D90182E10E9417
:10058000A302CD2DD12F0C0F1D2F111DC017D10788
:1005900021F089910E94A302F9CF61E0F7018685DD
:1005A000DF91CF911F910F91FF90EF90DF900C940E
:1005B000D9011F93CF93DF93EC01162F83E590E0D1
:1005C0000E94A00060E08E850E94D901812F806882
:1005D0000E94A30280E00E94A302182F61E08E8592
:1005E0000E94D901812FDF91CF911F9108950F9320
:1005F0001F93CF93DF93EC01062F142F83E590E038
:100600000E94A00060E08E850E94D901802F0E9488
:10061000A302812F0E94A30261E08E85DF91CF911A
:100620001F910F910C94D901CF92DF92EF92FF921C
:100630000F931F93CF93DF93EC016B01142F79017C
:1006400040E062E00E94F70244E06AE0CE010E94CE
:10065000F70240E864E1CE010E94F702A601612F93
:10066000CE010E94AA0243E062E0CE010E94F7029E
:1006700008E813E16AE0CE010E94D90282FF1BC0A4
:1006800040E062E0CE010E94F70264E4CE010E94E5
:10069000D902F701808362E4CE010E94D902F701FA
:1006A000818380E0DF91CF911F910F91FF90EF90B8
:1006B000DF90CF90089501501109E1F683E0F2CF69
:1006C0003F924F925F926F927F928F929F92AF92E2
:1006D000BF92CF92DF92EF92FF920F931F93CF932F
:1006E000DF9300D0CDB7DEB74C012B01D42E3901FA
:1006F00080E0E114F10411F0F7018081BC2CB29488
:1007000090EFB922B80E40E062E0C4010E94F70207
:100710004FE768E0C4010E94F70240E864E1C401C9
:100720000E94F702A2016D2DC4010E94AA024B2D66
:100730006AE1C4010E94F7024CE062E0C4010E9439
:10074000F7026AE1C4010E94D902482F40686AE1B9
:10075000C4010E94F70220ED422E27E0522E68E0ED
:10076000C4010E94D902982F907309F0B6C080FD91
:1007700004C0F1E04F1A510891F783E094C061146E
:10078000710409F46DC00115110509F469C064E133
:10079000C4010E94D902B82EF80180818B1508F49B
:1007A00096C0B082BB20E1F183E590E00E94A000FA
:1007B00060E0F40186850E94D901BA9482E90E9422
:1007C000A302CC20B1F08FEF90E09C0102C0220F79
:1007D000331FCA94E2F7690182E90E94A3029C2DAB
:1007E0009095F301208192238C21982B9083CC2427
:1007F000C39423014C0C511CCB1440F482E90E9499
:10080000A302F20181932F01C394F6CF80E00E94EE
:10081000A302F201808361E0F40186850E94D90180
:1008200068E1C4010E94D9028770E114F10411F05B
:10083000F701808333FC4DC06114710409F44BC08F
:100840000115110509F447C0AA2009F444C0F801B4
:100850004081413039F4843009F049C08FEF23C022
:1008600080E0E8CF423008F442C0811140C04250DD
:100870009E012F5F3F4FB301C4010E9414038111F9
:1008800012C0F8019081690E711CF301329720812A
:10089000998129132CC0F1E06F1A7108F3012081AE
:1008A0009A81291324C00F900F90DF91CF911F914F
:1008B0000F91FF90EF90DF90CF90BF90AF909F90FF
:1008C0008F907F906F905F904F903F90089584E05D
:1008D000EACF82E0E8CF80E0E6CF6CE0C4010E947E
:1008E000D902382E837109F44ACF81E0DCCF87E04A
:1008F000DACF0F931F93CF93DF938C01D62FC42FA2
:100900000E94D902C0954C2F48236D2FC801DF915A
:10091000CF911F910F910C94F7028F929F92AF92FB
:10092000CF92EF92FF920F931F93CF93DF9300D05C
:1009300000D01F92CDB7DEB74C0182E08D8340E03E
:1009400064E2C4010E94F70240E066E2C4010E9432
:10095000F70246E268E4C4010E94F70286E28B8354
:100960008D818230B0F140E86CE1C4010E947904CD
:1009700087E08C83A12CC12CCE0104967C018E01D2
:100980000B5F1F4F9E012F5F3F4F41E0BE016D5F28
:100990007F4FC4010E946003982F811117C08D8181
:1009A0008230B9F48C81811114C081E00F900F90D6
:1009B0000F900F900F90DF91CF911F910F91FF90AB
:1009C000EF90CF90AF909F908F90089581E09230FC
:1009D00069F380E0EBCF2F923F924F925F926F923C
:1009E0007F928F929F92AF92BF92CF92DF92EF92BF
:1009F000FF920F931F93CF93DF93CDB7DEB72D9761
:100A00000FB6F894DEBF0FBECDBF16E0413508F03B
:100A100045C1342E4B013C0140E86CE10E94790451
:100A200083E98983332029F081E0F40190819530B6
:100A300008F480E022242394B12C9B2D990F990F68
:100A4000990FD32CD91AD7FCD12C32E0882319F076
:100A500098E89B8333E021E09D2D977009F420E016
:100A60009D2D959595959595290FC9F094E0811147
:100A700093E0291708F4922FEB2DF0E03196E80D62
:100A8000F91D232F4191A1E0B0E0AC0FBD1FA20FD3
:100A9000B11D4C932F5F422F431B491798F38823B6
:100AA00011F0F8E0DF0E8FE18D150CF082C090E7B9
:100AB0009A838B819C8189279D8189279E818927A3
:100AC0008F839E01285F3F4F47E0BE016F5F7F4FDE
:100AD000C3010E941403182F8111E0C01A86E3E0BD
:100AE000EB87DC86CE0107962C0199E09D87CA84AE
:100AF0004C2D4295407F4C0D6AE1C3010E94F702E4
:100B0000A12CCE010A967C018E01055F1F4F920138
:100B10004D85BE016F5F7F4FC3010E946003182F98
:100B2000823009F065C06CE1C3010E94D90285FDE5
:100B3000B5C08F7109F480E2282F30E04D2DDD0C17
:100B4000550B421753070CF09DC0D82EE82FE595A2
:100B5000E595E595EF5F982F977081E009F480E0C7
:100B6000E80F81E090E08C0F9D1F8E0F911DFC011E
:100B7000215031092770332781E090E002C0880FAF
:100B8000991F2A95E2F79C018081822B80838BCF6D
:100B900085E98983332031F081E0F4019081983038
:100BA00008F04BCF80E049CF87E9898326E0B22E59
:100BB000F9CF9D2D97709A878D2D85958595859573
:100BC0008E5F282F2295207F290F2A8321E0911103
:100BD00001C020E0280F2D8744244394512C4C0E53
:100BE0005D1E480E511CE9E0E81BEB87DC867FCFD9
:100BF000811154C080E2D82E9C8590320CF457CFDE
:100C00008B81883809F040C083E093E0EB2DF0E061
:100C10003196E80DF91D980FA1E0B0E0AC0FBD1FB3
:100C2000A80FB11D2C9121938F5F8913F5CFBB8441
:100C3000E3E0BE124DC08A8581114AC09E012D5F3E
:100C40003F4F41E0B201C3010E941403182F8111EC
:100C500025C09B81F201818198133CC09C818281D7
:100C6000981338C0808182FF12C02394F2E02F16BF
:100C700009F48ECF83E0281609F496CF91E0291667
:100C800009F4CECE15E00AC082E094E0BFCFF401B3
:100C90008387822D880F820D8F5F8083812F2D9611
:100CA0000FB6F894DEBF0FBECDBFDF91CF911F917D
:100CB0000F91FF90EF90DF90CF90BF90AF909F90FB
:100CC0008F907F906F905F904F903F902F900895FE
:100CD00011E0E4CF17E0E2CF42E050E063E671E0DC
:100CE0008CE991E00C94A3000F931F93CF93DF93B3
:100CF000EC0188819981009759F02A813B81261760
:100D0000370730F081E0DF91CF911F910F91089567
:100D10008B016F5F7F4F0E94010C009759F0998300
:100D200088831B830A832C813D81232B59F7FC0187
:100D30001082E8CF80E0E7CFEF92FF920F931F93EE
:100D4000CF93DF936115710541F480E0DF91CF917E
:100D50001F910F91FF90EF90089541155105B1F04B
:100D60007B01EC010C811D81040F151FB8010E944D
:100D70007406882351F3288139818C819D81B701C4
:100D8000820F931F0E94D80C1D830C8381E0DECF5D
:100D9000CF93DF93EC0188819981009711F00E9435
:100DA000780B198218821D821C821B821A82DF91A5
:100DB000CF910895EF92FF920F931F93CF93DF93FC
:100DC000EC01198218821B821A821D821C82611515
:100DD000710521F18B01FB0101900020E9F73197AA
:100DE0007F01E61AF70AB7010E947406811109C053
:100DF000CE01DF91CF911F910F91FF90EF900C9456
:100E0000C806FD82EC82B80188819981DF91CF917B
:100E10001F910F91FF90EF900C94D80CDF91CF9120
:100E20001F910F91FF90EF900895FC0180819181B7
:100E3000009711F00C94780B08951F920F920FB643
:100E40000F9211242F933F934F935F936F937F9350
:100E50008F939F93AF93BF93EF93FF938CE991E0B0
:100E60000E942101FF91EF91BF91AF919F918F91CE
:100E70007F916F915F914F913F912F910F900FBE96
:100E80000F901F9018951F920F920FB60F9211247A
:100E90002F938F939F93EF93FF93E091AC01F09189
:100EA000AD018081E091B201F091B30182FD1BC0E0
:100EB00090818091B5018F5F8F732091B601821769
:100EC00041F0E091B501F0E0E456FE4F958F80933C
:100ED000B501FF91EF919F918F912F910F900FBED0
:100EE0000F901F9018958081F4CF1F920F920FB62C
:100EF0000F9211242F933F938F939F93AF93BF93A0
:100F00008091930190919401A0919501B0919601E7
:100F10003091920123E0230F2D3758F50196A11D42
:100F2000B11D209392018093930190939401A0931B
:100F30009501B09396018091970190919801A091AD
:100F40009901B0919A010196A11DB11D809397015D
:100F500090939801A0939901B0939A01BF91AF919A
:100F60009F918F913F912F910F900FBE0F901F90E7
:100F7000189526E8230F0296A11DB11DD2CFECE9EA
:100F8000F1E01382128288EE93E0A0E0B0E0848367
:100F90009583A683B7838BE491E09183808385EC6E
:100FA00090E09587848784EC90E09787868780EC33
:100FB00090E0918B808B81EC90E0938B828B82EC24
:100FC00090E0958B848B86EC90E0978B868B118ECE
:100FD000128E138E148EE9E3F2E08DE591E0918399
:100FE00080838AE0868789E087870895CF93DF939F
:100FF000CDB7DEB765970FB6F894DEBF0FBECDBF95
:10100000789484B5826084BD84B5816084BD85B5E3
:10101000826085BD85B5816085BD80916E008160EF
:1010200080936E0010928100809181008260809395
:101030008100809181008160809381008091800097
:101040008160809380008091B10084608093B100C2
:101050008091B00081608093B00080917A008460BC
:1010600080937A0080917A00826080937A008091E8
:101070007A00816080937A0080917A008068809302
:101080007A001092C100E091AC01F091AD0182E0D4
:101090008083E091A801F091A9011082E091AA015A
:1010A000F091AB018FEC80831092B401E091B0011C
:1010B000F091B10186E08083E091AE01F091AF0143
:1010C000808180618083E091AE01F091AF018081E9
:1010D00088608083E091AE01F091AF0180818068EB
:1010E0008083E091AE01F091AF0180818F7D80839C
:1010F0001FB7F89480919B01811127C0E0E9F0E0CF
:101100008491E4EAF0E09491E82FF0E0EE0FFF1F05
:10111000EE58FF4FA591B491EC91E92321F461E0E1
:101120008AE00E94D90161E08AE00E9407028CB542
:1011300080618CBD8CB580648CBD61E08DE00E94C7
:10114000070261E08BE00E94070280919B018F5FA4
:1011500080939B011FBF61E0809147020E940702BC
:1011600061E0809147020E94D901809148028F3F3F
:1011700009F4BFC060E00E9407022091480230E0FD
:10118000F901E255FF4F8491F901E656FF4F0491B2
:10119000F901EA57FF4F149111119CC061E0809151
:1011A00048020E94070260E0809148020E94D90133
:1011B00083E090E00197F1F761E0809148020E949E
:1011C000D9010E945D0240E064E289E392E00E945E
:1011D000F70240E066E289E392E00E94F70246E20D
:1011E00068E489E392E00E94F70240E864E589E35D
:1011F00092E00E94F70249EA66E589E392E00E94E4
:10120000F70243E068E589E392E00E94F70248EEC6
:101210006AE589E392E00E94F70240E46AE289E32A
:1012200092E00E94F7024DE362E289E392E00E94BD
:10123000F70268E289E392E00E94D902982F937046
:10124000933039F0482F436068E289E392E00E94CE
:10125000F70261E088E00E940702CE0101964C018E
:1012600030E5532E40E0642E40E0742E89E392E096
:101270000E948D04882321F189E392E00E9492026A
:101280008823F1F0E0914602EF7780E0E13420F42A
:10129000F0E0EA5FFE4F80818350833008F43CC069
:1012A00002EC10E0F8016491662341F08CE991E0D2
:1012B0000E9443010F5F1F4F892BA1F70E946C060C
:1012C0006114710499F20E940D01882349F20E9471
:1012D0000000C6CF81110E94B001E12FF0E0EE0FB7
:1012E000FF1FE458FF4FA591B491EC910E2309F430
:1012F00055CF4FE062E089E392E00E94F70213E0ED
:101300000E945D0262E089E392E00E94D90284FFBC
:101310005ACF1150A9F757CF65E671E0CE0140963C
:101320000E94DA062CE3C22E22E0D22E412C86E661
:10133000E82E81E0F82E07C0F3E04F12F8CF95E6D3
:10134000E92E91E0F92E5601F60180811B861A865E
:101350001D861C861F861E8640E1B40190E00E9417
:10136000750AF40101900020E9F731978F010819FF
:101370001909B801CE010A960E947406811155C060
:10138000CE010A960E94C806FFEFCF1ADF0AF501C8
:10139000808165E671E0803110F468E671E0C40197
:1013A0000E94DA064E855F856A857B85C4010E94AE
:1013B0009C06811103C0C4010E94C806F701019078
:1013C0000020E9F73197AF014E195F09B701C40159
:1013D0000E949C06811103C0C4010E94C8064D8171
:1013E0005E8169817A81CE0140960E949C06C4018B
:1013F0000E941507CE010A960E9415074394F4E057
:101400004F129ACF0889198901151105B1F0F80119
:1014100081918F01882389F0082E000C990B0E947E
:10142000BE0CF80131978083F2CF1F870E87B4017D
:101430008A859B850E94D80CA7CF4EE050E06AE6D3
:1014400071E08CE991E00E94A3004C895D89688974
:1014500079898CE991E00E94A3000E946C068C8936
:101460009D89892B61F069E771E0888999890E94DB
:10147000CF0C892B21F461E088E00E94D9018C898E
:101480009D89892B61F065E871E0888999890E94BE
:10149000CF0C892B21F460E088E00E94D9015982A9
:1014A0001A829E012D5F3F4F42E0B40189E392E032
:1014B0000E94140381110EC0A12CC12CF12CE12C2F
:1014C00010E000E030E020E044E0B40189E392E085
:1014D0000E94600348E060E189E392E00E947904A1
:1014E000CE0140960E941507EBCEBB27FB01552786
:1014F000AA27880F991FAA1FA41710F0A41B839571
:101500005051B9F7A05DAA3308F0A95DA1930097E7
:1015100079F7B111B1931192CB010C948F0ADC01D0
:10152000FC01672F71917723E1F7329704C07C911A
:101530006D9370836291AE17BF07C8F308952F9221
:101540003F924F925F926F927F928F929F92AF9253
:10155000BF92CF92DF92EF92FF920F931F93CF93A0
:10156000DF93CDB7DEB7CA1BDB0B0FB6F894DEBF37
:101570000FBECDBF09942A88398848885F846E845D
:101580007D848C849B84AA84B984C884DF80EE80A7
:10159000FD800C811B81AA81B981CE0FD11D0FB6B0
:1015A000F894DEBF0FBECDBFED010895EE0FFF1F13
:1015B0000590F491E02D09940F931F93CF93DF933F
:1015C0008230910510F482E090E0E0914B02F091BE
:1015D0004C0230E020E0B0E0A0E0309799F4211513
:1015E000310509F44AC0281B390B24303105D8F5E0
:1015F0008A819B816115710589F1FB019383828347
:10160000FE0111C0408151810281138148175907A1
:10161000E0F04817590799F4109761F012960C936F
:10162000129713961C933296CF01DF91CF911F91A1
:101630000F91089500934B0210934C02F4CF2115A3
:10164000310551F04217530738F0A901DB019A0127
:10165000BD01DF01F801C1CFEF01F9CF90934C023A
:1016600080934B02CDCFFE01E20FF31F8193919344
:101670002250310939832883D7CF209149023091F4
:101680004A02232B41F4209102013091030130934F
:101690004A02209349022091000130910101211555
:1016A000310541F42DB73EB7409104015091050139
:1016B000241B350BE0914902F0914A02E217F3072F
:1016C000A0F42E1B3F0B2817390778F0AC014E5FB2
:1016D0005F4F2417350748F04E0F5F1F50934A02A3
:1016E00040934902819391939FCFF0E0E0E09CCF3B
:1016F000CF93DF930097E9F0FC01329713821282B7
:10170000A0914B02B0914C02ED0130E020E0109727
:10171000A1F420813181820F931F209149023091E1
:101720004A022817390709F061C0F0934A02E09392
:101730004902DF91CF910895EA01CE17DF07E8F55E
:101740004A815B819E0141155105B1F7E901FB8397
:10175000EA8349915991C40FD51FEC17FD0761F435
:10176000808191810296840F951FE9019983888376
:10177000828193819B838A83F0E0E0E012968D91D1
:101780009C9113970097B9F52D913C911197CD013C
:101790000296820F931F2091490230914A02281726
:1017A000390739F6309751F510924C0210924B02DE
:1017B000B0934A02A0934902BCCFD383C283408135
:1017C0005181840F951FC817D90761F44E5F5F4F91
:1017D00088819981480F591F518340838A819B8159
:1017E000938382832115310509F0B0CFF0934C0229
:1017F000E0934B029ECFFD01DC01C0CF1382128229
:10180000D7CFB0E0A0E0E7E0FCE00C94A10A8C01A7
:10181000009751F4CB010E94DC0A8C01C801CDB7BE
:10182000DEB7E0E10C94BD0AFC01E60FF71F9C0156
:1018300022503109E217F30708F49DC0D901CD9178
:10184000DC911197C617D70798F0C530D10530F352
:10185000CE0104978617970708F3C61BD70B22976C
:10186000C193D1936D937C93CF010E94780BD6CF17
:101870005B01AC1ABD0A4C018C0E9D1EA0914B025F
:10188000B0914C02512C412CF12CE12C109731F5E8
:101890008091490290914A028815990509F05CC02F
:1018A0004616570608F058C080910001909101013A
:1018B000009741F48DB79EB7409104015091050106
:1018C000841B950BE817F90708F055C0F0934A02FE
:1018D000E0934902F90171836083A0CF8D919C91BF
:1018E000119712966C90129713967C901397A815E7
:1018F000B90559F56C0142E0C40ED11CCA14DB04D1
:1019000020F1AC014A195B09DA011296159780F0B3
:101910006282738251834083D9016D937C93E11479
:10192000F10471F0D7011396FC93EE93129776CFE2
:1019300022968C0F9D1FF90191838083F301EFCFD5
:10194000F0934C02E0934B0269CF4816590608F415
:101950002C017D01D3019ACFCB010E94DC0A7C01CE
:10196000009749F0AE01B8010E94C60CC8010E9460
:10197000780B870153CF10E000E050CF911108950C
:1019800081568A5108F4805285580895FB01DC0184
:1019900002C001900D9241505040D8F70895FB01CC
:1019A000DC018D91019080190110D9F3990B0895F4
:1019B000FB01DC0101900D920020E1F70895F894FD
:0219C000FFCF57
:1019C20000004D02800006090000FF000000040331
:1019D20000000000000007070000000000000500F2
:1019E20000000000000001000000000000000000F4
:1019F20000000000000000000000000000000000E5
:101A020000000000000002000000004301A300D01B
:101A12000090010101DF00F30000000000EB048DE3
:101A22000492020D0A003A00300054617020636192
:101A32007264206B65793A200030343A41413A3879
:101A4200393A32420036393A43313A41303A433236
:021A5200000092
:107E0000112484B714BE81FFF0D085E080938100F7
:107E100082E08093C00088E18093C10086E0809377
:107E2000C20080E18093C4008EE0C9D0259A86E02C
:107E300020E33CEF91E0309385002093840096BBD3
:107E4000B09BFECF1D9AA8958150A9F7CC24DD24C4
:107E500088248394B5E0AB2EA1E19A2EF3E0BF2EE7
:107E6000A2D0813461F49FD0082FAFD0023811F036
:107E7000013811F484E001C083E08DD089C08234E0
:107E800011F484E103C0853419F485E0A6D080C0E4
:107E9000853579F488D0E82EFF2485D0082F10E0AE
:107EA000102F00270E291F29000F111F8ED06801E7
:107EB0006FC0863521F484E090D080E0DECF843638
:107EC00009F040C070D06FD0082F6DD080E0C81688
:107ED00080E7D80618F4F601B7BEE895C0E0D1E017
:107EE00062D089930C17E1F7F0E0CF16F0E7DF06D8
:107EF00018F0F601B7BEE89568D007B600FCFDCFD4
:107F0000A601A0E0B1E02C9130E011968C91119780
:107F100090E0982F8827822B932B1296FA010C0160
:107F200087BEE89511244E5F5F4FF1E0A038BF0790
:107F300051F7F601A7BEE89507B600FCFDCF97BE46
:107F4000E89526C08437B1F42ED02DD0F82E2BD052
:107F50003CD0F601EF2C8F010F5F1F4F84911BD097
:107F6000EA94F801C1F70894C11CD11CFA94CF0C13
:107F7000D11C0EC0853739F428D08EE10CD085E9AC
:107F80000AD08FE07ACF813511F488E018D01DD067
:107F900080E101D065CF982F8091C00085FFFCCF94
:107FA0009093C60008958091C00087FFFCCF809118
:107FB000C00084FD01C0A8958091C6000895E0E648
:107FC000F0E098E1908380830895EDDF803219F02E
:107FD00088E0F5DFFFCF84E1DECF1F93182FE3DFCA
:107FE0001150E9F7F2DF1F91089580E0E8DFEE27F6
:047FF000FF270994CA
:027FFE00040479
:0400000300007E007B
:00000001FF
