:100000000C9477000C949F000C949F000C949F001C
:100010000C949F000C949F000C949F000C944A0732
:100020000C949F000C949F000C949F000C949F00D4
:100030000C949F000C949F000C949F000C949F00C4
:100040000C94FE070C949F000C94CC070C94A6070C
:100050000C949F000C949F000C949F000C949F00A4
:100060000C949F000C949F000000000024002700C7
:100070002A000000000023002600290000000008DC
:10008000000201000003040700000000000000005F
:10009000010204081020408001020408102001021F
:1000A0000408102000000000250028002B00040494
:1000B0000404040404040202020202020303030310
:1000C000030302596F757220746167206973206E93
:1000D0006F74206F662074797065204D49464152D7
:1000E0004520436C61737369632E00004808112436
:1000F0001FBECFEFD8E0DEBFCDBF22E0A2E9B1E066
:1001000001C01D92AE35B207E1F711E0A0E0B1E009
:10011000E0E8FCE102C005900D92A239B107D9F7E1
:1001200010E0C7E7D0E004C02197FE010E94350C23
:10013000C637D107C9F70E947F080C943E0E0C9475
:1001400000008CBD9DBD0895AF92BF92CF92DF920B
:10015000EF92FF920F931F93CF93DF936C017B017C
:100160008B01040F151FEB015E01AE18BF08C0170D
:10017000D10759F06991D601ED91FC910190F08180
:10018000E02DC6010995892B79F7C501DF91CF9143
:100190001F910F91FF90EF90DF90CF90BF90AF90A5
:1001A0000895FC01538D448D252F30E0842F90E07D
:1001B000821B930B541710F0CF9608950197089562
:1001C000FC01918D828D981761F0A28DAE0FBF2F2B
:1001D000B11D5D968C91928D9F5F9F73928F90E081
:1001E00008958FEF9FEF0895FC01918D828D9817F0
:1001F00031F0828DE80FF11D858D90E008958FEF2D
:100200009FEF0895FC01918D228D892F90E0805CF5
:100210009F4F821B91098F73992708958DEA91E072
:100220000E94020121E0892B09F420E0822F089529
:1002300080E090E0892B29F00E940E0181110C943E
:1002400000000895FC01A48DA80FB92FB11DA35A79
:10025000BF4F2C91848D90E001968F739927848FE6
:10026000A689B7892C93A089B1898C918370806409
:100270008C93938D848D981306C00288F389E02DAA
:1002800080818F7D80830895EF92FF920F931F935B
:10029000CF93DF93EC0181E0888F9B8D8C8D981339
:1002A0001AC0E889F989808185FF15C09FB7F89445
:1002B000EE89FF896083E889F98980818370806491
:1002C00080839FBF81E090E0DF91CF911F910F91DC
:1002D000FF90EF900895F62E0B8D10E00F5F1F4FEB
:1002E0000F731127E02E8C8D8E110CC00FB607FCFA
:1002F000FACFE889F989808185FFF5CFCE010E9488
:100300002201F1CFEB8DEC0FFD2FF11DE35AFF4FD2
:10031000F0829FB7F8940B8FEA89FB898081806215
:10032000CFCFCF93DF93EC01888D8823B9F0AA89D2
:10033000BB89E889F9898C9185FD03C0808186FDA0
:100340000DC00FB607FCF7CF8C9185FFF2CF8081EF
:1003500085FFEDCFCE010E942201E9CFDF91CF9141
:100360000895833081F028F4813099F08230A9F02B
:1003700008958730A9F08830C9F08430B1F48091B5
:1003800080008F7D03C0809180008F7780938000F4
:10039000089584B58F7784BD089584B58F7DFBCF94
:1003A0008091B0008F778093B00008958091B00065
:1003B0008F7DF9CF1F93CF93DF93282F30E0F90182
:1003C000E458FF4F8491F901E057FF4FD491F901B0
:1003D000E255FF4FC491CC23A9F0162F81110E9442
:1003E000B101EC2FF0E0EE0FFF1FEC55FF4FA59190
:1003F000B4918FB7F894EC91111108C0D095DE2319
:10040000DC938FBFDF91CF911F910895DE2BF8CF42
:100410009091000189130BC0E2ECF0E0E4919FEFB2
:1004200090930001E13049F028F0E23061F060E0A3
:100430000C94DA0110926E00FACF90916F009D7FBC
:1004400090936F00F4CF909170009D7F9093700017
:1004500091E09093B0009091B100987F9460909358
:10046000B1001092B300E3CFCF93DF9390E0FC0193
:10047000E057FF4F249182559F4FFC0184918823C0
:10048000D1F090E0880F991FFC01E859FF4FA5912A
:10049000B491FC01EC55FF4FC591D49161110EC090
:1004A0009FB7F8948C91E22FE0958E238C9328814E
:1004B000E223E8839FBFDF91CF9108958FB7F8942F
:1004C000EC91E22BEC938FBFF6CF3FB7F89480917D
:1004D000970190919801A0919901B0919A0126B548
:1004E000A89B05C02F3F19F00196A11DB11D3FBF6C
:1004F000BA2FA92F982F8827BC01CD01620F711D3B
:10050000811D911D42E0660F771F881F991F4A9534
:10051000D1F708958F929F92AF92BF92CF92DF92C0
:10052000EF92FF920E9465024B015C0182E3C82EAC
:10053000D12CE12CF12C0E946502681979098A09F5
:100540009B09683E734081059105A8F321E0C21A1A
:10055000D108E108F10888EE880E83E0981EA11CFE
:10056000B11CC114D104E104F10429F7FF90EF900C
:10057000DF90CF90BF90AF909F908F900895BC0177
:100580006E5F7F4FDC01ED91FC910190F081E02DD9
:1005900040E0099591E0811190E0892F0895089538
:1005A0008EBD00000DB407FEFDCF8EB50895DF921D
:1005B000EF92FF920F931F93CF93DF937C01062F4F
:1005C000D42E152F83E590E00E94A10060E0F70192
:1005D00086850E94DA0182E10E94D002CD2DD12FC2
:1005E0000C0F1D2F111DC017D10721F089910E94FA
:1005F000D002F9CF61E0F7018685DF91CF911F919D
:100600000F91FF90EF90DF900C94DA011F93CF933E
:10061000DF93EC01162F83E590E00E94A10060E0DB
:100620008E850E94DA01812F80680E94D00280E0CE
:100630000E94D002182F61E08E850E94DA01812F7E
:10064000DF91CF911F9108950F931F93CF93DF9365
:10065000EC01062F142F83E590E00E94A10060E0DA
:100660008E850E94DA01802F0E94D002812F0E9485
:10067000D00261E08E85DF91CF911F910F910C9494
:10068000DA01CF92DF92EF92FF920F931F93CF93F5
:10069000DF93EC016B01142F790140E062E00E94CE
:1006A000240344E06AE0CE010E94240340E864E1B0
:1006B000CE010E942403A601612FCE010E94D70221
:1006C00043E062E0CE010E94240308E813E16AE0FF
:1006D000CE010E94060382FF1BC040E062E0CE0113
:1006E0000E94240364E4CE010E940603F701808384
:1006F00062E4CE010E940603F701818380E0DF916E
:10070000CF911F910F91FF90EF90DF90CF900895C0
:1007100001501109E1F683E0F2CF3F924F925F92D0
:100720006F927F928F929F92AF92BF92CF92DF9201
:10073000EF92FF920F931F93CF93DF9300D0CDB72B
:10074000DEB74C012B01D42E390180E0E114F10415
:1007500011F0F7018081BC2CB29490EFB922B80E51
:1007600040E062E0C4010E9424034FE768E0C40156
:100770000E94240340E864E1C4010E942403A20112
:100780006D2DC4010E94D7024B2D6AE1C4010E9465
:1007900024034CE062E0C4010E9424036AE1C40126
:1007A0000E940603482F40686AE1C4010E942403A6
:1007B00020ED422E27E0522E68E0C4010E9406037D
:1007C000982F907309F0B6C080FD04C0F1E04F1A75
:1007D000510891F783E094C06114710409F46DC06D
:1007E0000115110509F469C064E1C4010E94060302
:1007F000B82EF80180818B1508F496C0B082BB201A
:10080000E1F183E590E00E94A10060E0F4018685BB
:100810000E94DA01BA9482E90E94D002CC20B1F0A1
:100820008FEF90E09C0102C0220F331FCA94E2F7C1
:10083000690182E90E94D0029C2D9095F3012081EC
:1008400092238C21982B9083CC24C39423014C0CAD
:10085000511CCB1440F482E90E94D002F201819332
:100860002F01C394F6CF80E00E94D002F201808372
:1008700061E0F40186850E94DA0168E1C4010E940A
:1008800006038770E114F10411F0F701808333FC53
:100890004DC06114710409F44BC00115110509F430
:1008A00047C0AA2009F444C0F8014081413039F41E
:1008B000843009F049C08FEF23C080E0E8CF423098
:1008C00008F442C0811140C042509E012F5F3F4F4B
:1008D000B301C4010E944103811112C0F80190814B
:1008E000690E711CF30132972081998129132CC064
:1008F000F1E06F1A7108F30120819A81291324C055
:100900000F900F90DF91CF911F910F91FF90EF907B
:10091000DF90CF90BF90AF909F908F907F906F901F
:100920005F904F903F90089584E0EACF82E0E8CF57
:1009300080E0E6CF6CE0C4010E940603382E83718C
:1009400009F44ACF81E0DCCF87E0DACF0F931F9321
:10095000CF93DF938C01D62FC42F0E940603C0953E
:100960004C2F48236D2FC801DF91CF911F910F911C
:100970000C9424038F929F92AF92CF92EF92FF92AA
:100980000F931F93CF93DF9300D000D01F92CDB76A
:10099000DEB74C0182E08D8340E064E2C4010E9436
:1009A000240340E066E2C4010E94240346E268E4B6
:1009B000C4010E94240386E28B838D818230B0F1D2
:1009C00040E86CE1C4010E94A60487E08C83A12C5E
:1009D000C12CCE0104967C018E010B5F1F4F9E013E
:1009E0002F5F3F4F41E0BE016D5F7F4FC4010E940A
:1009F0008D03982F811117C08D818230B9F48C81BD
:100A0000811114C081E00F900F900F900F900F9004
:100A1000DF91CF911F910F91FF90EF90CF90AF900A
:100A20009F908F90089581E0923069F380E0EBCF42
:100A30002F923F924F925F926F927F928F929F92EE
:100A4000AF92BF92CF92DF92EF92FF920F931F93DC
:100A5000CF93DF93CDB7DEB72D970FB6F894DEBFF7
:100A60000FBECDBF16E0413508F045C1342E4B0115
:100A70003C0140E86CE10E94A60483E989833320AD
:100A800029F081E0F4019081953008F480E022247F
:100A90002394B12C9B2D990F990F990FD32CD91A10
:100AA000D7FCD12C32E0882319F098E89B8333E0FF
:100AB00021E09D2D977009F420E09D2D9595959549
:100AC0009595290FC9F094E0811193E0291708F456
:100AD000922FEB2DF0E03196E80DF91D232F419177
:100AE000A1E0B0E0AC0FBD1FA20FB11D4C932F5F72
:100AF000422F431B491798F3882311F0F8E0DF0ECB
:100B00008FE18D150CF082C090E79A838B819C81D8
:100B100089279D8189279E8189278F839E01285F50
:100B20003F4F47E0BE016F5F7F4FC3010E9441030B
:100B3000182F8111E0C01A86E3E0EB87DC86CE0136
:100B400007962C0199E09D87CA844C2D4295407FE1
:100B50004C0D6AE1C3010E942403A12CCE010A9628
:100B60007C018E01055F1F4F92014D85BE016F5FB5
:100B70007F4FC3010E948D03182F823009F065C09A
:100B80006CE1C3010E94060385FDB5C08F7109F4B5
:100B900080E2282F30E04D2DDD0C550B4217530716
:100BA0000CF09DC0D82EE82FE595E595E595EF5F13
:100BB000982F977081E009F480E0E80F81E090E0E1
:100BC0008C0F9D1F8E0F911DFC0121503109277044
:100BD000332781E090E002C0880F991F2A95E2F741
:100BE0009C018081822B80838BCF85E98983332090
:100BF00031F081E0F4019081983008F04BCF80E033
:100C000049CF87E9898326E0B22EF9CF9D2D9770D1
:100C10009A878D2D8595859585958E5F282F2295B0
:100C2000207F290F2A8321E0911101C020E0280FA5
:100C30002D8744244394512C4C0E5D1E480E511CAC
:100C4000E9E0E81BEB87DC867FCF811154C080E2AE
:100C5000D82E9C8590320CF457CF8B81883809F0C0
:100C600040C083E093E0EB2DF0E03196E80DF91DF4
:100C7000980FA1E0B0E0AC0FBD1FA80FB11D2C91E3
:100C800021938F5F8913F5CFBB84E3E0BE124DC083
:100C90008A8581114AC09E012D5F3F4F41E0B2011C
:100CA000C3010E944103182F811125C09B81F201CD
:100CB000818198133CC09C818281981338C08081C7
:100CC00082FF12C02394F2E02F1609F48ECF83E046
:100CD000281609F496CF91E0291609F4CECE15E036
:100CE0000AC082E094E0BFCFF4018387822D880F91
:100CF000820D8F5F8083812F2D960FB6F894DEBF13
:100D00000FBECDBFDF91CF911F910F91FF90EF905C
:100D1000DF90CF90BF90AF909F908F907F906F901B
:100D20005F904F903F902F90089511E0E4CF17E02F
:100D3000E2CF42E050E064E671E08DEA91E00C948D
:100D4000A4000F931F93CF93DF93EC0188819981C7
:100D5000009759F02A813B812617370730F081E050
:100D6000DF91CF911F910F9108958B016F5F7F4F9E
:100D70000E94600D009759F0998388831B830A8332
:100D80002C813D81232B59F7FC011082E8CF80E0B4
:100D9000E7CFEF92FF920F931F93CF93DF936115ED
:100DA000710541F480E0DF91CF911F910F91FF9089
:100DB000EF90089541155105B1F07B01EC010C81D4
:100DC0001D81040F151FB8010E94A106882351F34D
:100DD000288139818C819D81B701820F931F0E94E8
:100DE000370E1D830C8381E0DECFCF93DF93EC01C0
:100DF00088819981009711F00E94D70C198218827E
:100E00001D821C821B821A82DF91CF910895EF927E
:100E1000FF920F931F93CF93DF93EC0119821882F7
:100E20001B821A821D821C826115710521F18B01C2
:100E3000FB0101900020E9F731977F01E61AF70ADC
:100E4000B7010E94A106811109C0CE01DF91CF91A7
:100E50001F910F91FF90EF900C94F506FD82EC82AC
:100E6000B80188819981DF91CF911F910F91FF90F7
:100E7000EF900C94370EDF91CF911F910F91FF905F
:100E8000EF900895FC0180819181009711F00C94FE
:100E9000D70C08951F920F920FB60F9211242F9323
:100EA0003F934F935F936F937F938F939F93AF93F2
:100EB000BF93EF93FF938091A1019091A201A09124
:100EC000A301B091A401892B8A2B8B2BD1F1909196
:100ED0009C01E0919D01F0919E0180818927808392
:100EE0008091A1019091A201A091A301B091A401D0
:100EF000181619061A061B069CF48091A101909100
:100F0000A201A091A301B091A4010197A109B10987
:100F10008093A1019093A201A093A301B093A40197
:100F2000FF91EF91BF91AF919F918F917F916F91C1
:100F30005F914F913F912F910F900FBE0F901F9097
:100F40001895809100010E940802EACF1F920F922B
:100F50000FB60F9211242F933F934F935F936F938C
:100F60007F938F939F93AF93BF93EF93FF938DEAFC
:100F700091E00E942201FF91EF91BF91AF919F916B
:100F80008F917F916F915F914F913F912F910F9032
:100F90000FBE0F901F9018951F920F920FB60F92D1
:100FA00011242F938F939F93EF93FF93E091BD01B3
:100FB000F091BE018081E091C301F091C40182FDF6
:100FC0001BC090818091C6018F5F8F732091C701F4
:100FD000821741F0E091C601F0E0E355FE4F958F96
:100FE0008093C601FF91EF919F918F912F910F9068
:100FF0000FBE0F901F9018958081F4CF1F920F9213
:101000000FB60F9211242F933F938F939F93AF931B
:10101000BF938091930190919401A0919501B0911B
:1010200096013091920123E0230F2D3758F5019658
:10103000A11DB11D2093920180939301909394017F
:10104000A0939501B093960180919701909198019A
:10105000A0919901B0919A010196A11DB11D8093B3
:10106000970190939801A0939901B0939A01BF9131
:10107000AF919F918F913F912F910F900FBE0F9045
:101080001F90189526E8230F0296A11DB11DD2CFFF
:10109000EDEAF1E01382128288EE93E0A0E0B0E086
:1010A00084839583A683B7838CE491E091838083C6
:1010B00085EC90E09587848784EC90E0978786871D
:1010C00080EC90E0918B808B81EC90E0938B828B15
:1010D00082EC90E0958B848B86EC90E0978B868BEE
:1010E000118E128E138E148EEAE4F2E08EE591E0FA
:1010F000918380838AE0868789E087870895CF93EC
:10110000DF93CDB7DEB767970FB6F894DEBF0FBE9B
:10111000CDBF789484B5826084BD84B5816084BD80
:1011200085B5826085BD85B5816085BD80916E0085
:10113000816080936E0010928100809181008260B6
:1011400080938100809181008160809381008091F3
:1011500080008160809380008091B10084608093E2
:10116000B1008091B00081608093B00080917A00DE
:10117000846080937A0080917A00826080937A0004
:1011800080917A00816080937A0080917A008068F3
:1011900080937A001092C100E091BD01F091BE01F0
:1011A00082E08083E091B901F091BA011082E09170
:1011B000BB01F091BC018FEC80831092C501E091DE
:1011C000C101F091C20186E08083E091BF01F091FE
:1011D000C001808180618083E091BF01F091C001F6
:1011E000808188608083E091BF01F091C00180819F
:1011F00080688083E091BF01F091C00180818F7D84
:1012000080831FB7F89480919B01811127C0E8EB80
:10121000F0E08491EAE9F0E09491E82FF0E0EE0F3D
:10122000FF1FE859FF4FA591B491EC91E92321F4F8
:1012300061E08AE00E94DA0161E08AE00E94340203
:101240008CB580618CBD8CB580648CBD61E08DE017
:101250000E94340261E08BE00E94340280919B0185
:101260008F5F80939B011FBF61E0809158020E94B5
:10127000340261E0809158020E94DA0180915902A3
:101280008F3F09F4C2C060E00E94340220915902ED
:1012900030E0F901E458FF4F8491F901E057FF4F26
:1012A0000491F901E255FF4F149111119FC061E0C3
:1012B000809159020E94340260E0809159020E949C
:1012C000DA0183E090E00197F1F761E08091590243
:1012D0000E94DA010E948A0240E064E28AE492E01D
:1012E0000E94240340E066E28AE492E00E94240324
:1012F00046E268E48AE492E00E94240340E864E560
:101300008AE492E00E94240349EA66E58AE492E0D6
:101310000E94240343E068E58AE492E00E942403EB
:1013200048EE6AE58AE492E00E94240340E46AE21F
:101330008AE492E00E9424034DE362E28AE492E0B0
:101340000E94240368E28AE492E00E940603982F38
:101350009370933039F0482F436068E28AE492E05A
:101360000E94240361E088E00E943402CE010196CD
:101370004C0144244A94542C320168E9262E60E042
:10138000362E8AE492E00E94BA04882321F18AE48E
:1013900092E00E94BF028823F1F0E0915702EF77BC
:1013A00080E0E13420F4F0E0E95FFE4F808183507B
:1013B000833008F43DC003EC10E0F801649166232B
:1013C00041F08DEA91E00E9444010F5F1F4F892B8D
:1013D000A1F70E94990680E090E0892B91F20E948B
:1013E0000E01882351F20E940000C7CF81110E9494
:1013F000B101E12FF0E0EE0FFF1FEE58FF4FA59176
:10140000B491EC910E2309F452CF4FE062E08AE4EC
:1014100092E00E94240313E00E948A0262E08AE4C0
:1014200092E00E94060384FF57CF1150A9F754CFD2
:1014300066E671E0CE0140960E9407075DE4C52E86
:1014400052E0D52EB12C37E6E32E31E0F32E07C063
:10145000F3E0BF12F8CF46E6E42E41E0F42EDF8A37
:10146000CE8AF60180811B861A861D861C861F8601
:101470001E8640E1B40190E00E94D40BF40101907B
:101480000020E9F731978F0108191909B801CE0139
:101490000A960E94A106811156C0CE010A960E94AA
:1014A000F506FFEFCF1ADF0AEE89FF89808166E635
:1014B00071E0803110F469E671E0C4010E94070711
:1014C0004E855F856A857B85C4010E94C9068111AE
:1014D00003C0C4010E94F506F70101900020E9F75E
:1014E0003197AF014E195F09B701C4010E94C906C7
:1014F000811103C0C4010E94F5064D815E8169819E
:101500007A81CE0140960E94C906C4010E9442071A
:10151000CE010A960E944207B394F4E0BF1298CF1E
:101520000889198901151105B1F0F80181918F0120
:10153000882389F0082E000C990B0E941D0EF801DB
:1015400031978083F2CF1F870E87B4018A859B85F0
:101550000E94370EA6CF4EE050E06BE671E08DEAB8
:1015600091E00E94A4004C895D89688979898DEA9F
:1015700091E00E94A4000E9499068C899D89892B84
:1015800009F4E3C06AE771E0888999890E942E0E08
:10159000892B09F0CFC080910001883029F5E2EC59
:1015A000F0E0149117FDC6C061E088E00E943402AB
:1015B000112309F48BC0123009F09CC08091B10056
:1015C00087608093B1008DE48093B3004092A101C5
:1015D0005092A2016092A3017092A40180917000C8
:1015E000826080937000A2C08F3F09F0A3C088E0A2
:1015F00080930001E2ECF0E014911F3F09F49AC0DF
:10160000113021F150F0123009F43EC017FD92C0A4
:1016100061E088E00E943402CECF14BC15BC84B5D2
:10162000826084BD85B5816085BDE6EBF0E0849184
:10163000E82FF0E0EE0FFF1FEC55FF4F85919491DE
:10164000F10184918093A00110E0AECF1092800050
:101650001092810080918100886080938100809148
:101660008100816080938100E6EBF0E08491E82FB7
:10167000F0E0EE0FFF1FEC55FF4F85919491F101C3
:10168000849180939F0190CF1092B0001092B1008E
:101690008091B00082608093B0008091B100816041
:1016A0008093B100E6EBF0E08491E82FF0E0EE0FDC
:1016B000FF1FEC55FF4F8591949190939E0180936D
:1016C0009D01F101849180939C016ECF85B5887F47
:1016D000856085BD8DE487BD4092A9015092AA0125
:1016E0006092AB017092AC0180916E008260809339
:1016F0006E001CC0113009F04FC080918100887FBE
:1017000083608093810081EE94E0909389008093C0
:1017100088004092A5015092A6016092A7017092A4
:10172000A80180916F00826080936F008C899D89F1
:10173000892B59F066E871E0888999890E942E0EFC
:10174000892B19F488E00E94080280E589831A82B7
:101750009E012D5F3F4F42E0B4018AE492E00E9477
:10176000410381110EC0A12CC12CF12CE12C10E001
:1017700000E030E020E044E0B4018AE492E00E941E
:101780008D0348E060E18AE492E00E94A604CE0165
:1017900040960E9442071FCE123021F01111C6CF91
:1017A00081EE99CF81EE10CFBB27FB015527AA27E9
:1017B000880F991FAA1FA41710F0A41B83955051DE
:1017C000B9F7A05DAA3308F0A95DA193009779F756
:1017D000B111B1931192CB010C94EE0BDC01FC0121
:1017E000672F71917723E1F7329704C07C916D9355
:1017F00070836291AE17BF07C8F308952F923F928E
:101800004F925F926F927F928F929F92AF92BF9210
:10181000CF92DF92EF92FF920F931F93CF93DF93BC
:10182000CDB7DEB7CA1BDB0B0FB6F894DEBF0FBE19
:10183000CDBF09942A88398848885F846E847D8466
:101840008C849B84AA84B984C884DF80EE80FD8068
:101850000C811B81AA81B981CE0FD11D0FB6F894DE
:10186000DEBF0FBECDBFED010895EE0FFF1F059047
:10187000F491E02D09940F931F93CF93DF9382305F
:10188000910510F482E090E0E0915C02F0915D023D
:1018900030E020E0B0E0A0E0309799F42115310568
:1018A00009F44AC0281B390B24303105D8F58A8148
:1018B0009B816115710589F1FB0193838283FE0190
:1018C00011C0408151810281138148175907E0F00E
:1018D0004817590799F4109761F012960C931297D4
:1018E00013961C933296CF01DF91CF911F910F91E8
:1018F000089500935C0210935D02F4CF2115310529
:1019000051F04217530738F0A901DB019A01BD01DC
:10191000DF01F801C1CFEF01F9CF90935D02809311
:101920005C02CDCFFE01E20FF31F81939193225011
:10193000310939832883D7CF20915A0230915B0235
:10194000232B41F4209103013091040130935B0279
:1019500020935A0220910101309102012115310595
:1019600041F42DB73EB74091050150910601241B6B
:10197000350BE0915A02F0915B02E217F307A0F4F5
:101980002E1B3F0B2817390778F0AC014E5F5F4FD5
:101990002417350748F04E0F5F1F50935B024093AA
:1019A0005A02819391939FCFF0E0E0E09CCFCF93D8
:1019B000DF930097E9F0FC01329713821282A09125
:1019C0005C02B0915D02ED0130E020E01097A1F4DF
:1019D00020813181820F931F20915A0230915B0246
:1019E0002817390709F061C0F0935B02E0935A02AF
:1019F000DF91CF910895EA01CE17DF07E8F54A811C
:101A00005B819E0141155105B1F7E901FB83EA8332
:101A100049915991C40FD51FEC17FD0761F48081DE
:101A200091810296840F951FE901998388838281B1
:101A300093819B838A83F0E0E0E012968D919C91E4
:101A400013970097B9F52D913C911197CD0102960E
:101A5000820F931F20915A0230915B022817390799
:101A600039F6309751F510925D0210925C02B093F6
:101A70005B02A0935A02BCCFD383C28340815181C1
:101A8000840F951FC817D90761F44E5F5F4F888197
:101A90009981480F591F518340838A819B81938389
:101AA00082832115310509F0B0CFF0935D02E093F8
:101AB0005C029ECFFD01DC01C0CF13821282D7CF22
:101AC000B0E0A0E0E6E6FDE00C94000C8C0100978D
:101AD00051F4CB010E943B0C8C01C801CDB7DEB79D
:101AE000E0E10C941C0CFC01E60FF71F9C01225056
:101AF0003109E217F30708F49DC0D901CD91DC91BB
:101B00001197C617D70798F0C530D10530F3CE012D
:101B100004978617970708F3C61BD70B2297C19324
:101B2000D1936D937C93CF010E94D70CD6CF5B01EC
:101B3000AC1ABD0A4C018C0E9D1EA0915C02B091A6
:101B40005D02512C412CF12CE12C109731F5809144
:101B50005A0290915B028815990509F05CC04616FF
:101B6000570608F058C0809101019091020100973A
:101B700041F48DB79EB74091050150910601841B39
:101B8000950BE817F90708F055C0F0935B02E09356
:101B90005A02F90171836083A0CF8D919C911197B6
:101BA00012966C90129713967C901397A815B9050E
:101BB00059F56C0142E0C40ED11CCA14DB0420F1BB
:101BC000AC014A195B09DA011296159780F062821E
:101BD000738251834083D9016D937C93E114F104A6
:101BE00071F0D7011396FC93EE93129776CF22965D
:101BF0008C0F9D1FF90191838083F301EFCFF09348
:101C00005D02E0935C0269CF4816590608F42C0186
:101C10007D01D3019ACFCB010E943B0C7C01009740
:101C200049F0AE01B8010E94250EC8010E94D70CF0
:101C3000870153CF10E000E050CF911108958156F5
:101C40008A5108F4805285580895FB01DC0102C0D6
:101C500001900D9241505040D8F70895FB01DC01EE
:101C60008D91019080190110D9F3990B0895FB0112
:101C7000DC0101900D920020E1F70895F894FFCF68
:101C8000FF00005E02800006090000FF0000000463
:101C9000030000000000000707000000000000052E
:101CA0000000000000000001000000000000000033
:101CB0000000000000000000000000000000000024
:101CC0000000000000000002000000004401A40029
:101CD000D10091010201E000F400000000001805AD
:101CE000BA04BF020D0A003A00300054617020634C
:101CF000617264206B65793A200030343A41413A90
:101D000038393A32420036393A43313A41303A436F
:021D100032009F
:00000001FF
